:1000000000200010D500000049010000F5030000A9
:10001000000000000000000000000000EDD9FFEF2C
:100020000000000000000000000000004D01000082
:1000300000000000000000004F010000DD0500008E
:10004000550100005D010000650100006D01000028
:10005000210600007D010000850100008D010000E7
:100060009501000011180000A5010000AD0100007D
:10007000B5010000BD010000C5010000CD01000078
:10008000D5010000DD010000E5010000ED010000E8
:10009000F5010000FD010000050200000D02000056
:1000A000150200001D020000250200002D020000C4
:1000B000350200003D020000450200004D02000034
:1000C000E44A00008000001034000000B40000107A
:1000D000D803000010B572B602F03EF80D4B07E0F1
:1000E000186859681C000C349A6800F019F823004D
:1000F000094A9342F4D306E018681C000834596892
:1001000000F019F82300054A9342F5D362B603F0D4
:1001100000F8FEE7C0000000CC000000D4000000A2
:1001200010B5002304E004680C600433043004318B
:100130009342F8D310BD002303E000220260043391
:1001400004308B42F9D37047FEE7FEE7FEE7FEE797
:10015000FEE7FEE710B501F089FB10BD10B501F018
:100160009FFB10BD10B5FFF7F4FF10BD10B501F0F7
:100170004FFE10BD10B501F05DFE10BD10B501F0D1
:100180006BFE10BD10B5FFF7E4FF10BD10B501F018
:10019000FFF910BD10B501F0EBF910BD10B5FFF778
:1001A000D8FF10BD10B5FFF7D4FF10BD10B5FFF795
:1001B000D0FF10BD10B5FFF7CCFF10BD10B5FFF795
:1001C000C8FF10BD10B5FFF7C4FF10BD10B5FFF795
:1001D000C0FF10BD10B5FFF7BCFF10BD10B5FFF795
:1001E000B8FF10BD10B5FFF7B4FF10BD10B5FFF795
:1001F000B0FF10BD10B501F061F910BD10B501F0F0
:10020000D7F910BD10B5FFF7A4FF10BD10B5FFF76B
:10021000A0FF10BD10B501F0F5F910BD10B501F04B
:1002200017FA10BD10B501F039FA10BD10B501F084
:100230005BFA10BD10B501F07DFA10BD10B5FFF7E7
:1002400088FF10BD10B5FFF784FF10BD10B5FFF794
:1002500080FF10BDFFFFFFFFFFFFFFFFFFFFFFFF5E
:10026000FFFFFFFFFFFFFFFFFFFFFFFFFFFFFFFF9E
:10027000FFFFFFFFFFFFFFFFFFFFFFFFFFFFFFFF8E
:10028000FFFFFFFFFFFFFFFFFFFFFFFFFFFFFFFF7E
:10029000FFFFFFFFFFFFFFFFFFFFFFFFFFFFFFFF6E
:1002A000FFFFFFFFFFFFFFFFFFFFFFFFFFFFFFFF5E
:1002B000FFFFFFFFFFFFFFFFFFFFFFFFFFFFFFFF4E
:1002C000FFFFFFFFFFFFFFFFFFFFFFFFFFFFFFFF3E
:1002D000FFFFFFFFFFFFFFFFFFFFFFFFFFFFFFFF2E
:1002E000FFFFFFFFFFFFFFFFFFFFFFFFFFFFFFFF1E
:1002F000FFFFFFFFFFFFFFFFFFFFFFFFFFFFFFFF0E
:1003000090B589B000AFF860B9603B60FB1D1A7012
:10031000FB1D1B78082B01D0012324E0144BFA1D90
:1003200012781A70FA68124B5A6014210C007B186C
:10033000180001F01DFC21007B18BA681A607B18B8
:1003400001221A717B1801225A71094B5B683A68C5
:100350007918180001F08CFB054B064A9A60044B93
:10036000054ADA6000231800BD4609B090BDC046BA
:10037000B4000010D11C0000311D00000FB480B586
:1003800082B000AF0C4B1B78002B02D101235B42E3
:100390000BE01423FB183B603A683969074B1800DF
:1003A00002F061FB03007B607B681800BD4602B071
:1003B00080BC08BC04B01847B4000010C1030000A2
:1003C00090B583B000AF7860094B1B78002B02D149
:1003D00001235B4208E0064B9C68054B5B68391DB6
:1003E00001221800A04701231800BD4603B090BDAC
:1003F000B400001004207146084202D0EFF30980D7
:1004000001E0EFF3088081690A88054B9A4200D029
:10041000FEE702318161202101607047C046000083
:10042000ABBE000080B582B000AF0200FB1D1A70A9
:10043000FB1D1B787F2B09D8FB1D1B781A001F237F
:100440001A40044B012191400A001A60C046BD4683
:1004500002B080BD00E100E090B583B000AF0200C3
:100460003960FB1D1A70FB1D1B787F2B28D82F4A83
:10047000FB1D1B785BB29B08C0339B009B58FA1D89
:100480001278110003220A40D200FF2191400A0095
:10049000D2431A4011003B689B01FF221A40FB1D0A
:1004A0001B78180003230340DB009A401F48FB1D04
:1004B0001B785BB29B080A43C0339B001A5031E0A3
:1004C0001B4AFB1D1B7819000F230B40083B9B08A0
:1004D00006339B00D31804331B68FA1D12781100F1
:1004E00003220A40D200FF2191400A00D2431A4061
:1004F00011003B689B01FF221A40FB1D1B7818006E
:1005000003230340DB009A400948FB1D1B781C00B5
:100510000F232340083B9B080A4306339B00C31864
:1005200004331A60C046BD4603B090BD00E100E050
:1005300000ED00E080B582B000AF78607B68013BE1
:100540000C4A934201D9012310E00B4B7A68013A1F
:100550005A6001235B4203211800FFF77DFF064B21
:1005600000229A60044B07221A6000231800BD463F
:1005700002B080BDFFFFFF0010E000E080B582B058
:1005800000AF0200FB1D1A70074A8023D358FA1DE2
:100590001278012191400A000349134380228B50B5
:1005A000C046BD4602B080BD0080044080B582B028
:1005B00000AF02003960BB1D1A80BB1D1B881B05E4
:1005C0001B0D054A944663443A68FF210A401A60AD
:1005D000C046BD4602B080BD0080044080B500AF7B
:1005E000054B1B68002B04D0034B1B685A1E024BA3
:1005F0001A60C046BD4680BD2C01001080B582B097
:1006000000AF7860054B7A681A60C046034B1B68E0
:10061000002BFBD1C046BD4602B080BD2C010010AE
:10062000B0B584B000AF1F4B180002F035FC0200DB
:100630000123134031D00B257C191A4B180002F00E
:1006400043FC03002370184B1B78DBB25A1CD1B259
:10065000154A11701900154B7A1912785A54114B1A
:10066000180002F019FC03007B607B680422134031
:100670005A425341DBB2FB600CE00A4B180002F017
:100680000BFC03007B607B68042213405A425341F9
:10069000DBB2FB60FB68002BEFD1C046BD4604B067
:1006A000B0BDC0460080064088040010C4000010A1
:1006B000B0B596B000AF02F020FD02F012FD02F0DE
:1006C00017FD01F00BFC02F00AFC00F013FCE74BF5
:1006D0001A68FA239900100002F07CFD030018004C
:1006E000FFF728FF031E00D0FEE7E14C18210D00A4
:1006F0007B18E0490522180002F06EFB29007A18E9
:10070000230011CA11C3DA4C0D007B18DA49042208
:10071000180002F061FB29007A182300083311CA7F
:1007200011C3D34C0D007B18D4490422180002F0E9
:1007300053FB29007A182300103311CA11C3CC4C83
:100740000D007B18CE490F22180002F045FB29004E
:100750007A182300183311CA11C3C54C0D007B1839
:10076000C8490F22180002F037FB29007A1823002D
:10077000203311CA11C3BE4C0D007B18C24912228E
:10078000180002F029FB29007A182300283311CA27
:1007900011C3B74C0D007B18BC490522180002F0AC
:1007A0001BFB29007A182300303311CA11C3B04C47
:1007B0000D007B18B6491022180002F00DFB29002D
:1007C0007A182300383311CA11C3A94C0D007B18C5
:1007D000B0491122180002F0FFFA29007A1823000C
:1007E000403311CA11C3A24C0D007B18AA490D2237
:1007F000180002F0F1FA29007A182300483311CAD0
:1008000011C39B4C0D007B18A4490E22180002F066
:10081000E3FA29007A182300503311CA11C3944C0B
:100820000D007B189E491222180002F0D5FA29000B
:100830007A182300583311CA11C38D4C0D007B1850
:1008400098491322180002F0C7FA29007A182300E9
:10085000603311CA11C3864C0D007B1892491322D4
:10086000180002F0B9FA29007A182300683303CA85
:1008700003C38E4C3B008E490722180002F089FA10
:100880003A00230013CA13C313CA13C3874C3B0097
:1008900088490722180002F07CFA3A002300183336
:1008A00013CA13C313CA13C3804C3B0082490B22E3
:1008B000180002F06EFA3A002300303313CA13C353
:1008C00013CA13C3794C3B007C490922180002F07B
:1008D00060FA3A002300483313CA13C313CA13C380
:1008E000724C3B0076490B22180002F052FA3A0093
:1008F0002300603313CA13C313CA13C36B4C3B00EA
:1009000070490B22180002F044FA3A0023007833B1
:1009100013CA13C313CA13C3644C90253B006A491E
:100920000B22180002F035FA3A00631913CA13C3F8
:1009300013CA13C35D4CA8253B0064490C22180060
:1009400002F027FA3A00631913CA13C313CA13C378
:10095000564CC0253B005E490A22180002F019FAE5
:100960003A00631913CA13C313CA13C34F4CD825D3
:100970003B0058493922180002F00BFA3A0063197B
:1009800013CA13C313CA13C3484CF0253B00524982
:100990000D22180002F0FDF93A00631913CA13C3BF
:1009A00013CA13C3414D84235C003B004B495122C1
:1009B000180002F0EEF93A002B1913CA13C313CA38
:1009C00013C33A4D90235C003B0043490D221800AD
:1009D00002F0DFF93A002B1913CA13C313CA13C369
:1009E000324D9C235C003B003D491722180002F069
:1009F000D0F93A002B1913CA13C313CA13C3394BC6
:100A000000221A607BE1374B1A6813005B009B18C9
:100A1000DB00264A9B18344A1900100002F0F1F955
:100A2000304B1B68092B05D1FA231B011800FFF777
:100A3000E5FD04E0FA23DB001800FFF7DFFD294B9A
:100A40001A681A4913005B009B18DB005B581800FA
:100A5000FFF794FC254B1800FFF790FC244B18007F
:100A6000FFF78CFC234B00221A60DBE0B000001083
:100A7000880200109C320000A4320000A83200005E
:100A8000AC320000BC320000CC320000E03200008A
:100A9000E8320000F83200000C3300001C33000084
:100AA0002C330000403300005433000034010010A8
:100AB0006833000070330000783300008433000096
:100AC000903300009C330000A8330000B4330000D2
:100AD000C0330000CC33000008340000183400009C
:100AE0008000001030010010008006406C340000CF
:100AF000C400001084020010D84B1A68D84BD200F2
:100B0000D158D64B1B68D64ADB00D31804331B6878
:100B10001A00D44B180002F034FB031E00D07CE016
:100B2000D14B1A68D14913005B009B18DB00CB182E
:100B3000043300221A60CB4B64220021180002F01B
:100B4000EFFACB4B00221A70C74B1B68022B0AD15D
:100B5000C24B1B680B2B06D1A023180600230922C9
:100B6000002102F07FF9C04B1B680D2B0AD1BB4B53
:100B70001B68082B06D1A023180600230822002199
:100B800002F070F9B54B1B68042B51D13C243B1982
:100B9000B8490D22180002F0FCF83B19B64A1900BA
:100BA000100002F02EF9FA239B001800FFF726FD33
:100BB000AA4B00221A602BE0A84B1A68A84BD2005F
:100BC000D158A64B1B68A64ADB00D31804331B6818
:100BD0001A00A44B180002F0D4FA031E13D1A24B42
:100BE0001A68A24913005B009B18DB00CB18043382
:100BF00000221A609B4B64220021180002F090FA38
:100C00009B4B00221A70954B1B685A1C934B1A6021
:100C1000924B1B680D2BCFD90AE0904B1B685A1CD6
:100C20008E4B1A608D4B1B680D2B00D864E700E0DB
:100C3000C0468D4B1B68062B0DD18D4B1B78DBB24C
:100C4000002B08D0874B64220021180002F068FABC
:100C5000874B00221A70844B1B68032B0DD1844BE9
:100C60001B78DBB2002B08D07E4B642200211800D9
:100C700002F056FA7E4B00221A707B4B1B68042B45
:100C80000DD17B4B1B78DBB2002B08D0754B642257
:100C90000021180002F044FA754B00221A70724BC2
:100CA0001B68082B26D1724B1B78DBB2002B21D09E
:100CB00000237B6512E07B6D06336A497A6D8A18E2
:100CC00011786E4AD1547B6D043366497A6D8A1867
:100CD00011786B4AD1547B6D01337B657B6D0E2B94
:100CE000E9DD604B64220021180002F019FA604B24
:100CF00000221A705C4B1B685A1C5B4B1A605A4BE3
:100D00001B680D2B00D87EE65E4B1B685A1C5D4BA2
:100D10001A605D4B1B68002B15DDA023180601230C
:100D20000D22002102F09EF8574B1B681800FFF7B8
:100D300065FCA023180600230D22002102F092F882
:100D4000514B00221A60464B196D454B5B6D1A00E2
:100D5000444B180002F015FA031E15D14B4B464ABE
:100D60001900100002F04DF8FA23DB001800FFF71D
:100D700045FC3D4B1A683D4913005B009B18DB00A6
:100D80005B581800FFF7FAFA354B996E344BDB6E5F
:100D90001A00344B180002F0F4F9031E16D1242473
:100DA0003B193B490E22180001F0F3FF3B19324A70
:100DB0001900100002F025F8FA23DB001800FFF7F5
:100DC0001DFC3B191B681800FFF7D8FA2C49254B6E
:100DD0001322180002F0D5F9031E95D1214B5B7D3B
:100DE0006D2B08D01F4B5B7D682B04D01D4B5B7DAA
:100DF000732B00D074E01B4BDB7C2F2B66D9194B77
:100E0000DB7C392B62D8174BDB7C303B1A001E4B46
:100E10001A60144B1B7D2E2B14D0124B1B7D2F2BD5
:100E200010D9104B1B7D392B0CD8174B1A681300A7
:100E30009B009B185B001A000A4B1B7D303BD218AD
:100E4000114B1A60074B5B7D6D2B25D10E4B1B6838
:100E5000104A5A430C4B1A6038E0C0468402001016
:100E600088020010C400001030010010340100108E
:100E700088040010783400000080064080000010D4
:100E800098000010F8020010280100100C02001059
:100E90008834000060EA0000124B5B7D682B06D1AD
:100EA000114B1B68114A5A430F4B1A600EE00D4B51
:100EB0005B7D732B0AD10C4B1A6813005B019B1AE4
:100EC0009B009B18DB001A00074B1A60054B64223D
:100ED0000021180002F024F9054B00221A7013E7D4
:100EE000C04611E7C40000102801001080EE360053
:100EF0008804001080B584B000AF3B1D180000F0DE
:100F000037FE3B1D01221A713B1D01225A713B1D08
:100F1000962292011A60012000F0BAF802003B1DEF
:100F20000748190000F0A4FD054B0121180001F04D
:100F3000BDFF042001F07EFFC046BD4604B080BD69
:100F40000080064080B500AF00F078F8054B9B6F3D
:100F5000FF221340190002F03DF903001800BD46BE
:100F600080BDC0460080044080B500AF00F0C8F8E6
:100F70000100044B9B681F22134001334B431800B0
:100F8000BD4680BD0080044080B500AF024B1B68A9
:100F90001800BD4680BDC0460003001080B500AFFC
:100FA000024B1B681800BD4680BDC046FC02001005
:100FB00080B582B000AF786039607B68002B03D1C8
:100FC0000D4B180001F0DEF87B681B683A68D243CD
:100FD0001A407B681A607B681A683B681A437B6812
:100FE0001A60C0467B681B683A681340FAD0C04656
:100FF000BD4602B080BDC0469834000080B500AF49
:10100000014B1800BD4680BD001BB70080B582B003
:1010100000AF00237B60084A8E239B00D358202218
:10102000134003D1FFF7BAFF03007B607B68180011
:10103000BD4602B080BDC0460080044080B582B08D
:1010400000AF00237B60114B1B6F012B0AD004D330
:10105000022B0CD0032B0FD013E0FFF7CFFF0300C0
:101060007B600EE000F04CF803007B6009E0FFF7C6
:101070008BFF03007B6004E0FFF776FF03007B60DB
:10108000C0467B681800BD4602B080BD00800440A9
:1010900080B584B000AF0200FB1D1A70FB1D1B78E9
:1010A000072B22D89A00154BD3181B689F46FFF7D1
:1010B00049FF0300FB601BE0FFF7C0FF0300FB607C
:1010C00016E0FFF79BFF0300FB6011E0FFF766FFF0
:1010D0000300FB600CE0FFF757FF0300FB6007E035
:1010E000FFF742FF0300FB6002E00023FB60C04605
:1010F000FB681800BD4604B080BDC0466C350000DA
:1011000080B582B000AF00237B600F4B1B6C0322C5
:101110001340012B08D002D3032B0AD00EE0FFF7B7
:101120006DFF03007B6009E0FFF770FF03007B6049
:1011300004E0FFF733FF03007B60C0467B681800C4
:10114000BD4602B080BDC0460080044080B584B07A
:1011500000AF78600023FB607B680D4A934202D9A0
:101160000023FB600FE07B680A4A934202D9012307
:10117000FB6008E07B68084A934202D90223FB60C7
:1011800001E00323FB60FB681800BD4604B080BD8E
:10119000802FA604C0175302E08B290180B586B0CA
:1011A00000AF78607B681B68374A934203D9374B9E
:1011B000180000F0E7FF00237B6100233B61002360
:1011C000FB60334A8E239B00D358314980221A4357
:1011D0008E239B00CA502E4B1B6C032293437A68CC
:1011E0001279134319002A4B1A6C294B0A431A64CB
:1011F000284B03211800FFF7DBFEFFF781FF0300F8
:10120000FB60FB68002B03D1234B180000F0BAFFF2
:101210007B681B68F968180001F0DCFF03007B6144
:101220007B681B681800FFF791FF03003B61184BB8
:101230009B687F2293431A007B69013B1F210B406F
:101240001A4311003B695B0160221A40104B0A43AC
:101250009A600F4A8E239B00D3580D4980229343F6
:101260001A008E239B00CA50C046094BDB6801223E
:101270001340FAD0FB687A695A43084B1A60C0469B
:10128000BD4606B080BDC04600E1F505BC34000097
:1012900000800440448004400C350000040300102A
:1012A00080B584B000AF0200BB1D1A80BB1D1B8837
:1012B000FF221340FB60BB1D1B881B0A9BB21A0058
:1012C000FF231340BB600F4B1B6F03221340BA6810
:1012D0009A4212D0FB68002B0FD10A4B1B6F0322DE
:1012E00093431900BB6803221A40064B0A431A674E
:1012F000054B01211800FFF75BFEC046BD4604B058
:1013000080BDC046008004407480044080B584B035
:1013100000AF78600023FB6006E00C4A7B689342D4
:1013200006D0FB680133FB60FB68002BF5D000E0C2
:10133000C046FB68002B03D0054B180000F022FFCD
:10134000FB681800BD4604B080BDC0460080005058
:101350006C37000090B587B000AF78607B681800EC
:1013600001F0CAFD03003B6100237B6100237B6128
:1013700099E07A693B69D2184F4B9200D358FB60D1
:10138000FB68002B00D18AE0FB681B7B1A001F233F
:101390001340BB60FB689B6858331A00FB681B7BDB
:1013A0005B09DBB29B00D3181A68BB68DA401300F4
:1013B000012213401AD0FB689B6858331A00FB685F
:1013C0001B7B5B09DBB29B00D3180121BA689140FB
:1013D0000A001A60FB681B68002B07D0FB681C68BA
:1013E000FB685968F86800230122A047FB689B68E6
:1013F00060331A00FB681B7B5B09DBB29B00D318D0
:101400001A68BB68DA401300012213401AD0FB6847
:101410009B6860331A00FB681B7B5B09DBB29B0097
:10142000D3180121BA6891400A001A60FB681B6852
:10143000002B07D0FB681C68FB685968F86801231B
:101440000122A047FB689B6840331A00FB681B7BA6
:101450005B09DBB29B00D3181A68BB68DA40130043
:10146000012213401CD0FB689B6840331A00FB68C4
:101470001B7B5B09DBB29B00D3180121BA6891404A
:101480000A001A60FB681B68002B09D0FB681C6807
:10149000FB685968F86802230022A04700E0C046B4
:1014A0007B6901337B617B69182B00D861E7C046FB
:1014B000BD4607B090BDC0460803001080B500AF20
:1014C000034B1800FFF746FFC046BD4680BDC0462F
:1014D0000080005080B582B000AF0200FB1D1A7082
:1014E000074A8023D358FA1D1278012191400A003F
:1014F0000349134380228B50C046BD4602B080BDD5
:101500000080044080B582B000AF786039603B68ED
:10151000002B03D0054B180000F034FE0623180002
:10152000FFF7D8FFC046BD4602B080BDFC3D0000BD
:1015300080B582B000AF786039607B681B6801229B
:10154000134006D0084B1B6839687A68100098472A
:1015500005E0064B1B6839687A6810009847C0465A
:10156000BD4602B080BDC0467C0300108003001061
:1015700080B500AF044B1B68044A19001000FFF748
:10158000D7FFC046BD4680BD6C030010000005407B
:1015900080B500AF044B5B68044A19001000FFF7E8
:1015A000C7FFC046BD4680BD6C030010004005402B
:1015B00080B500AF044B9B68044A19001000FFF788
:1015C000B7FFC046BD4680BD6C0300100000074059
:1015D00080B586B000AF7860094B9B6A7B617B6900
:1015E0001B0E3B613B69002B05D07B68DB6AFB600F
:1015F0007B68FA68DA623B691800BD4606B080BDB8
:10160000004000A080B582B000AF0F4B1800FFF77C
:10161000DFFF03007B600D4B1B68002B05D00B4BDD
:101620001B687A68110000209847074B1B6801224D
:10163000134004D1044B0021180001F0D9FCC0462E
:10164000BD4602B080BDC046004000A0840300102B
:1016500080B582B000AF0F4B1800FFF7B9FF030051
:101660007B600D4B5B68002B05D00B4B5B687A6889
:10167000110001209847074B1B680222134004D138
:10168000044B0121180001F0B3FCC046BD4602B076
:1016900080BDC046004000A08403001080B582B029
:1016A00000AF0F4B1800FFF793FF03007B600D4B5B
:1016B0009B68002B05D00B4B9B687A6811000220B9
:1016C0009847074B1B680422134004D1044B0221A6
:1016D000180001F08DFCC046BD4602B080BDC0467A
:1016E000004000A08403001080B582B000AF0F4B13
:1016F0001800FFF76DFF03007B600D4BDB68002BCC
:1017000005D00B4BDB687A68110003209847074B24
:101710001B680822134004D1044B0321180001F078
:1017200067FCC046BD4602B080BDC046004000A078
:101730008403001080B582B000AF0F4B1800FFF794
:1017400047FF03007B600D4B1B69002B05D00B4B43
:101750001B697A68110004209847074B1B68102208
:10176000134004D1044B0421180001F041FCC04691
:10177000BD4602B080BDC046004000A084030010FA
:1017800080B584B000AF0200FB1D1A70FB1D1B78F2
:10179000FB600122FB689A401300BB60FB681F2BB3
:1017A00003D9074B180000F0EDFC064B5A68BB68E4
:1017B000D943044B0A405A60C046BD4604B080BDC0
:1017C0003C3E00000080044080B584B000AF0200C1
:1017D000FB1D1A70FB1D1B78FB600122FB689A4001
:1017E0001300BB60FB681F2B03D9074B180000F0E8
:1017F000C9FC064B5968054BBA680A435A60C04693
:10180000BD4604B080BDC046683E00000080044074
:1018100080B500AF034B1B68034A10009847C046D1
:10182000BD4680BDA40300100040005080B582B0CA
:1018300000AF786039607B68180001F0FEFB031E82
:1018400006D0084B1B6839687A681000984705E095
:10185000054B1B6839687A6810009847C046BD463A
:1018600002B080BDB0030010B403001080B500AF1B
:10187000084B1B68002B03D1074B180000F082FCBB
:10188000044B1B68054A19001000FFF7CFFFC04644
:10189000BD4680BDA8030010404300000080054005
:1018A00080B500AF084B5B68002B03D1074B1800D5
:1018B00000F068FC044B5B68054A19001000FFF754
:1018C000B5FFC046BD4680BDA80300106C430000B4
:1018D00000C0054080B586B000AF786008001100F8
:1018E000FB1C021C1A70BB1C0A1C1A707B68002BA4
:1018F00003D11D4B180000F045FCFB1C1B782F2B5F
:1019000003D91A4B180000F03DFC00237B61002333
:101910003B61FB1C1B789B08DBB27B61FB1C1B78CB
:1019200003221340DB003B617B687A699200D35845
:10193000FB60FF223B699A401300DB431A00FB68FF
:101940001340FB60BB1C1A783B699A4013001A00D5
:10195000FB681343FB607B687A699200F968D15099
:10196000C046BD4606B080BD98430000C04300009D
:1019700080B584B000AFF860B960FB1D1A70FB68D9
:10198000002B03D11A4B180000F0FCFBBB68002BA6
:1019900007D1BB68174A934203D9174B180000F0D0
:1019A000F1FBFB1D1B78002B0FD0BB68002B1ADB53
:1019B000FA68E0235B00D358BA68D2431A4011009A
:1019C000FA68E0235B00D1500DE0BB68002B0ADB16
:1019D000FA68E0235B00D258BB681A431100FA682A
:1019E000E0235B00D150C046BD4604B080BDC04678
:1019F000F8430000400000802044000080B582B021
:101A000000AF0200FB1D1A70074A8023D358FA1D4D
:101A10001278012191400A000349134380228B5020
:101A2000C046BD4602B080BD0080044080B584B091
:101A300000AF78600023FB600BE00B4BFA6892006C
:101A4000D2587B689A4201D1FB6809E0FB680133F8
:101A5000FB60FB68022BF0DD044B180000F092FBEA
:101A60001800BD4604B080BD684400007C440000FE
:101A700080B586B000AFF860B9607A6000237B6102
:101A8000FB68002B05D0BB68002B02D07B68002BC5
:101A900003D1344B180000F075FBFB681800FFF70A
:101AA000C5FF03003B61304A3B69D3181B7818001F
:101AB000FFF7A4FF2D4A3B69D3181B78180001F0EB
:101AC000A8FABB689B791B0130221A40BB68DB79FE
:101AD0009B0140210B401A43BB689B7A5B08DBB239
:101AE000D90280231B010B401A43BB681B7A9B0061
:101AF0000C210B401A43BB685B7ADB031B041B0CF5
:101B00001A43BB689B7A99038023DB010B40134384
:101B100001221A43FB681A60BB681B68002B08D0BF
:101B2000BB6819687A68FB68180000F04BF803007E
:101B30007B617B69002B01D07B690EE0BB685A7921
:101B4000FB681100180001F087FABB681A79FB687E
:101B50001100180001F0A3FA00231800BD4606B0DA
:101B600080BDC046D84500007444000078440000A1
:101B700080B582B000AF78607B68002B03D1104B3A
:101B8000180000F0FFFA7B68962292011A607B68C9
:101B900000229A717B680022DA717B6801221A7236
:101BA0007B6800225A727B6800221A717B680022CF
:101BB0005A717B6800229A72C046BD4602B080BD51
:101BC0006046000080B58CB000AFF860B9607A6004
:101BD000FB68002B05D0BB68002B02D07B68002B74
:101BE00003D1384B180000F0CDFA01235B42FB62B1
:101BF0000F23BB6201235B427B620023FB61002356
:101C0000BB6100233B6200237B61FB681A68802371
:101C10001B0113400AD0B968786801F0DBFA0300B1
:101C2000BB61BB695A1EFB681A6246E0BB6A3B6235
:101C300034E03B6A0133BA6853431900786801F015
:101C4000C9FA0300013BBB61BB691F4A934221D81B
:101C50003B6A0133BA69013253431900786801F0D5
:101C6000B9FA03007B61BA687B699A4203D27A6948
:101C7000BB68D31A02E0BA687B69D31AFB61FA69C0
:101C8000FB6A9A4207D2FB69FB623B6ABB62BB6993
:101C90007B6200E0C0463B6A013B3B623B6A072B2C
:101CA000C7D87B6A084A934201D9084B06E0FB6813
:101CB000BA6A9A62FB687A6A1A6200231800BD4603
:101CC0000CB080BD8C460000FFFF00004F160000E6
:101CD00080B584B000AFF860B9607A60FB68002B13
:101CE00002D0BB68002B14D1104B180000F04AFA48
:101CF000C046FB689B6804221340FAD0BB681B787F
:101D00001A00FB68DA61BB680133BB607B68013B8A
:101D10007B607B68002BEBD1C046FB689B68082288
:101D20001340FAD0C046BD4604B080BDE84600006E
:101D300080B586B000AFF860B9607A60FB68002BB0
:101D400002D0BB68002B50D12C4B180000F01AFABF
:101D5000C046FB689B6801221340FAD0FB685B69B0
:101D6000DAB2BB681A70BB680133BB60FB689B6862
:101D70007B617A6980239B01134008D0FB689B68D4
:101D8000802292011A43FB689A601D4B31E07A6908
:101D90008023DB01134008D0FB689B688022D201BE
:101DA0001A43FB689A60174B23E07A6980231B0271
:101DB000134008D0FB689B68802212021A43FB681C
:101DC0009A60114B15E0FB689A6880235B00134012
:101DD00008D0FB689B68802252001A43FB689A6017
:101DE0000A4B06E07B68013B7B607B68002BAFD130
:101DF00000231800BD4606B080BDC0462C47000039
:101E00004C1600004D1600004B1600004E16000048
:101E100080B500AF044B1A68044B1B6804481900D6
:101E20009047C046BD4680BDC4030010B8030010F3
:101E30000040064080B500AF044B1A68044B5B6855
:101E4000044819009047C046BD4680BDC403001039
:101E5000B80300100080064080B500AF044B1A683C
:101E6000044B9B68044819009047C046BD4680BD9E
:101E7000C4030010B803001000C0064080B582B053
:101E800000AF0200FB1D1A70074A8023D358FA1DC9
:101E90001278012191400A000349134380228B509C
:101EA000C046BD4602B080BD0080044080B582B00F
:101EB00000AF02003960BB1D1A80BB1D1B881B05CB
:101EC0001B0D054A944663443A68FF210A401A6094
:101ED000C046BD4602B080BD0080044080B582B0DF
:101EE00000AF0E20FFF7CAFF01219420FFF7DEFFAD
:101EF000032001F08EF8FFF7A1F802009623990164
:101F0000094813000822FEF7FBF903007B607B6899
:101F1000002B03D0054B180000F034F97B68180043
:101F2000BD4602B080BDC046004006404C4A00009D
:101F300080B582B000AF0200BB1D1A80BB1D1A889D
:101F4000BB1D1B881B0A9BB21900FF230B400549D0
:101F50008C466344FF210A401A60C046BD4602B069
:101F600080BDC0460080044080B582B000AF78607C
:101F70007B68002B03D1094B180000F003F9084BD4
:101F80009B6FFF22934319007B68FF221A40044B8A
:101F90000A439A67C046BD4602B080BD7C4A000035
:101FA0000080044080B582B000AF7860074A8E237D
:101FB0009B00D3587A68D24304491A408E239B0071
:101FC000CA50C046BD4602B080BDC0460080044035
:101FD00080B582B000AF0120FFF7E4FF0220FFF7D9
:101FE000E1FF8023DB011800FFF7A2FF3B00002286
:101FF0001A713B000B4A1A603B001800FFF7CEF83D
:102000000020FFF74DF9E0231B021800FFF790FFB7
:102010000120FFF7A9FF044B024A1A60C046BD46E3
:1020200002B080BD001BB700B000001080B582B0C8
:1020300000AF0200FB1D1A70074A8023D358FA1D17
:102040001278012191400A000349134380228B50EA
:10205000C046BD4602B080BD0080044080B582B05D
:1020600000AF0200FB1D1A70084A8023D358FA1DE6
:102070001278012191400A00D24304491340802282
:102080008B50C046BD4602B080BDC04600800440B3
:1020900080B582B000AF1220FFF7C8FF0720FFF71E
:1020A000C5FF2B4B042200211800FFF713FC284B1F
:1020B000002201211800FFF70DFC254B11220521FC
:1020C0001800FFF707FC224B172206211800FFF724
:1020D00001FC80235B001E4801221900FFF748FC29
:1020E0003B1D01221A703B1D00225A703B00194A09
:1020F00012881A80A0231B0600211800FFF702FA9D
:102100003A1DA023180613000D22002100F016FF2F
:102110003A00A023180613000922002100F00EFF48
:102120003A00A023180613000B22002100F006FF3E
:102130003A00A023180613000822002100F0FEFE3A
:102140000720FFF78BFFC046BD4602B080BDC046EA
:1021500000C00040A84A000080B500AF054B064A09
:102160009A60064B064A1A6000F0CEFFC046BD4694
:1021700080BDC04600ED00E000000000B00000108F
:10218000001BB70070B505000E4C0F48210000F091
:10219000E1FF2100280000F0DDFF0C4A111DCB6F8C
:1021A000013BCB67002B07DB936F591C91670A2219
:1021B0001A7000F0B4FF70BD21000A2000F028F86A
:1021C000F7E7C04640040010B04A0000C803001002
:1021D000202310B50400C2689A43E2608369826AD2
:1021E00093420CD000F0BAF8E368074A1A40102373
:1021F0001343E360A36AA3612369E3622360E26897
:10220000024B1340E36010BDEFCFFFFFBFBFFFFFE6
:10221000F8B5CA684E4B050013400C00CB6093061E
:1022200002D50800FFF7D4FFA268E668531C0FDA56
:10223000B3050DD402235B429B1AA36090235B027B
:102240001E432368E6605A1C22601D70E8B20AE053
:10225000404A3240022A07D00023A36080331E4345
:10226000E66001204042F8BD80213B4B090233402B
:102270008B420AD10021200000F048F9E3689B0658
:1022800002D52000FFF7A4FFE6689023F0225B024E
:1022900033431201E360164210D1606900F0EFFF92
:1022A000002820D073051ED523002433236123602A
:1022B0000123E36192235B023343E3609021090130
:1022C000226826690B4224D0E16A8A4200D91100B3
:1022D000891B17D1731CE3622360E3695A1EA26055
:1022E00023633570B2E780277F00380000F0FEF8E6
:1022F0009423E2685B0233431A4320612060E76164
:10230000E260DBE72200300000F056F80028E1D060
:10231000A7E7511CE8B221601070E26A21688A4286
:1023200000D91100E269891B22635B0504D40A28E5
:1023300002D08A4200DD89E70023E6622660A360BE
:102340002200300000F038F8002800D17EE788E74E
:10235000FFFFF7FF8A10000010A0000070B5040016
:1023600005690168C26A124BC0680340E3608223BA
:102370000340022B02D00120404270BD80235B024B
:102380001840FAD0914200D211008D4208D10020AD
:10239000E268084BE56213402560A060E360ECE76B
:1023A000491B2200280000F007F80028EFD0E2E7E0
:1023B000FFFFF7FFFFFFFEFFF7B5D56801900E00A6
:1023C00014005769EB0205D5102338001D4300F0B7
:1023D00053FFA061104B1D420FD0A169380000F0DF
:1023E00054FF002806DA80230120E26840421343AC
:1023F000E3600FE0094B1D40E560320001993800B1
:1024000000F049FF43005B08F61AA3699E19A66114
:102410000028E8D1FEBDC04610000200EFFFFDFF1E
:10242000F7B50027304EC51C3468AD08B84214D04B
:102430002900EB1C9C460A310191002C0FD10C3075
:1024400000F08EF9431C08D080239B050360456093
:102450008460002F46D130601EE00020FEBD802247
:102460002368520593423AD1A7686368002F0BD0C6
:1024700080213A6849058A4206D17A6803339B185D
:102480006360BB68A360EFE7AB4207DB9C4505DBFD
:1024900080239B05236020000C30DFE7019A9342E4
:1024A00010D9802220008021920522600C30AA00E1
:1024B0005B1B82184905033B6560A2601160536095
:1024C0009760CBE7002F0AD19B00C01A00F048F9B3
:1024D000431CC2D080239B0523606560DBE7270097
:1024E000A468AAE7B860D7E78004001010B5FFF72A
:1024F00097FF041E05D11722034900F0CCFE00F01F
:102500000EFE200010BDC046C54A0000F7B5394B8D
:10251000C56804000E0000921D4201D1022741E06F
:1025200043691800019300F0AAFE071EF6D1009B34
:10253000012B28D0022B2BD0002BEFD1002EEDDB6E
:10254000AB0404D52368E26A9A4200D2E362A06930
:10255000B0420EDCE26A2368934200D21300226983
:1025600019180092891AB14203DB216B4218B2425A
:102570002EDC20231D430023A662A36063601E4B54
:102580001D40E5600EE0200000F038F83618D5E771
:10259000019800F071FEE268002805DA8023012727
:1025A0001343E3603800FEBDE16A2368994200D915
:1025B0000B00A1695B1821695B1A920603D5A26A18
:1025C000934200DA1300834200DA0300F618B5E7FD
:1025D000361AAA0701D5711AA160EA0703D5009A35
:1025E0009B1AF31A6360009B9E19202326609D436B
:1025F000C5E7C04603001000BFCFF7FFC2689307CE
:1026000005D1212201200E4B40421A607047202341
:10261000134012030AD5002B02D0806A0138F5E777
:102620000368826900699B18181AF7E7002B01D02C
:10263000806AEBE70368826900699B18181AE5E76E
:102640008404001037B5184C18492200002000F00F
:10265000A7F8802380225B00D2000021200000F038
:102660002FF8134C134D22002900012000F098F898
:10267000802380225B00D2000021200000F020F89F
:102680000D4B1B680193022B0DDD0C4C2900220021
:10269000022000F085F8802380225B00D200002118
:1026A000200000F00DF837BDC8030010DD4A00001F
:1026B00004040010DF4A0000AC4A0000400400108F
:1026C000F0B5C5680124AE0710D08026B600B2422E
:1026D00007D08026F600B2420AD080267600B242A9
:1026E00004D1084F5E1E0124BE4204D92000F0BD73
:1026F000010023002431154301610160C361C560FD
:102700000024F3E7FEFFFF00032110B5421C08423E
:1027100018D1114C0368114959189943214219D015
:10272000DCB2411C002C0BD0FF242402811C23426C
:1027300006D0FF2109040B40591E8B41C318D91C38
:10274000881A04E0431C0078002801D1981A10BDB3
:102750001800DCE70430DDE780808080FFFEFEFEAD
:1027600070B50C4D2B68002B01D10B4B2B60032354
:10277000C41C2E689C433419200000F09BF80028EC
:1027800002D12C60300070BD0C220126034B764232
:102790001A60F7E77C0400108C0400108404001019
:1027A000F7B50D0001901000140000F033F82B78FD
:1027B000722B1FD0772B04D0612B26D10823144A0B
:1027C00001E0042302220220691C03278446042618
:1027D000012508782B2810D0622813D0E260019AD6
:1027E00062611B0704D5022200212000FFF78EFE44
:1027F0002000FEBD00230122E5E760463A43034383
:102800000131E6E732432B43FAE70024F0E7C04604
:1028100002800000F0B5C46889B00500A30722D08B
:10282000230718D44769066900F022F8380000F041
:1028300020FD230502D5300000F076FC0B4BA40DE3
:10284000A4059C4207D12022296A684600F020FD99
:10285000684600F0B3FC3C220021280000F060FC38
:10286000002009B0F0BD01204042FAE7000080AD31
:1028700073B5002813D000F027F80500280076BDB6
:1028800030006043094BC01800F01EF8002801D04A
:1028900001256D420134019BA342F1DCEEE7044BBC
:1028A00004001B68050001933C26F4E7C8030010F0
:1028B000AC4A0000034B0200181E02D000209A42CE
:1028C000404170478C06001070B50326C3680400B1
:1028D0001E4011D09B0611D5856AFFF779FCE2688E
:1028E000094B20001340E360FFF738FD002206008B
:1028F00029002000FFF70AFE300070BD03688269DE
:102900009D180369ED1AEAE7FFCFFFFF80B586B097
:1029100000AFB9607A603B600F23FB18021C1A708D
:10292000BB687B610DE00F23FB181A783B6A10002F
:1029300098473B681B685A1C3B681A607B690133E7
:102940007B617A697B689A42EDDBC046BD4606B082
:1029500080BD80B58CB000AFF860B9607A603B6034
:102960000023FB61FB68BB61BB695A1CBA61002292
:102970001A707B68002B35D0BB681B68FB62FB6A52
:10298000002B2BD1BB6930221A70FB690133FB612C
:10299000FB6964E03968F86A00F019FC03003B61E8
:1029A0003B693A685343FA6AD31ABB62BB6A002B8D
:1029B00006DABB6A3B623B6A3022D31ABB6202E092
:1029C000BB6A3033BB623B69FB62BB695A1CBA61AC
:1029D000BA6AD2B21A70FB690133FB61FB6A002B41
:1029E000D8D13BE0BB681B687B627B6A002B32D18D
:1029F000BB6930221A70FB690133FB61FB692EE071
:102A00003B681900786A00F0E5FB03007B613B68D6
:102A10007A6953437A6AD31A3B623B6A092B03D81B
:102A20003B6A30333B620BE03823FB181B78002BEA
:102A300001D0412300E061233A6A9B180A3B3B62C4
:102A40007B697B62BB695A1CBA613A6AD2B21A705E
:102A5000FB690133FB617B6A002BD1D1FB69180054
:102A6000BD460CB080BD90B59DB002AFF860B960B6
:102A70007A6000233B660023FB650023BB614A2389
:102A8000FB1800221A7000233B61BB687B6674E16F
:102A90007B6C252B07D07A6CFB6810009847BB69CC
:102AA0000133BB6166E14B23FB1801221A7000233E
:102AB0007B650023BB651BE07B6E01337B667B6E11
:102AC0001B787B647B6C2F2B0DDD7B6C392B0ADC38
:102AD0007A6D13009B009B185B001A007B6CD31867
:102AE000303B7B6504E07B6E013B7B660123BB656D
:102AF000BB6D002BE0D006233B657B6E01337B660C
:102B00007B6E1B782E2B24D100233B650023BB65F5
:102B10001BE07B6E01337B667B6E1B787B647B6C7A
:102B20002F2B0DDD7B6C392B0ADC3A6D13009B00DB
:102B30009B185B001A007B6CD318303B3B6504E0AC
:102B40007B6E013B7B660123BB65BB6D002BE0D038
:102B500002E07B6E013B7B667B6E01337B667B6EA6
:102B60001B787B647B6C642B1BD07B6C692B18D02F
:102B70007B6C662B15D07B6C462B12D07B6C782B34
:102B80000FD07B6C582B0CD07B6C6F2B09D07B6CDF
:102B9000622B06D07B6C702B03D07B6C752B00D026
:102BA000A4E07B6C642B02D07B6C692B16D17B6814
:102BB0001A1D7A601B687B611423F9181C243819CC
:102BC0004B23FB181B7800930A230122FFF7C1FE59
:102BD0000300FB653A19FB6DD3183B667B6C582BE1
:102BE00002D07B6C782B1DD17B6C782B03D14B23CF
:102BF000FB1800221A707B681A1D7A601B683B6103
:102C00001023F9181C2438194B23FB181B78009348
:102C100010230022FFF79DFE0300FB653A19FB6DB0
:102C2000D3183B667B6C6F2B08D07B6C622B05D076
:102C30007B6C702B02D07B6C752B39D17B681A1D95
:102C40007A601B683B617B6C6F2B08D002DC622BC7
:102C50000AD018E0702B0CD0752B0FD013E04A234C
:102C6000FB1808221A700EE04A23FB1802221A7081
:102C700009E04A23FB1810221A7004E04A23FB18CB
:102C80000A221A70C0464A23FB181A781023F91832
:102C90001C2438194B23FB181B78009313000022C7
:102CA000FFF757FE0300FB653A19FB6DD3183B662F
:102CB0007A6D1823F818F96DFB6800930300202043
:102CC000FFF724FE3B6E002B54D00AE03B6E5A1EE9
:102CD0003A661B781A00FB6810009847BB690133FD
:102CE000BB613B6E1B78002BF0D143E07B6C632B08
:102CF0000DD17B681A1D7A601B68DBB23B643A6CAD
:102D0000FB6810009847BB690133BB6132E07B6C04
:102D1000732B28D17B681A1D7A601B68FB64FB6CDF
:102D2000002B27D0FB6C1800FFF7EEFC0300FB65BF
:102D30007A6D1823F818F96DFB68009303002020C2
:102D4000FFF7E4FD0AE0FB6C5A1CFA641B781A00DA
:102D5000FB6810009847BB690133BB61FB6C1B78B3
:102D6000002BF0D106E07A6CFB6810009847BB6935
:102D70000133BB617B6E01337B667B6E1B787B64AA
:102D80007B6C002B00D083E6BB691800BD461BB0EE
:102D900090BD90B58BB000AFF860B9607A6010213B
:102DA0007B18BA681A607B1800221A617B187A684F
:102DB0005A617B1800225A607B1800229A607B18A7
:102DC0000022DA60FB687A1813CA13C313CA13C34C
:102DD000F868BD460BB090BD80B586B000AFF86016
:102DE000B9607A6010217B18BA681A607B187A681B
:102DF0005A60FB687A1803CA03C3F868BD4606B078
:102E000080BD80B582B000AF786039603B681968DA
:102E10003B685A697B681800FEF75AFF3B6801223D
:102E20005A603B681B695A1C3B681A61C046BD4624
:102E300002B080BD80B582B000AF0200FB1D1A70E9
:102E4000FB1D1B785BB2803301D1012306E0FB1D23
:102E50001B785BB21800FDF7E5FA00231800BD46A9
:102E600002B080BD80B584B000AFF860B9607A6010
:102E70001A00FB1C1A70F968BA681300DB009B1A71
:102E80009B009B18CA187B68D318FA1C12781A701A
:102E9000C046BD4604B080BD80B582B000AF78604A
:102EA0007B689B681800BD4602B080BD80B582B0CB
:102EB00000AF786039603B68DB05DA0D7B68DA606B
:102EC000C046BD4602B080BD80B582B000AF78601C
:102ED0007B685B69DBB21800BD4602B080BD80B57F
:102EE00000AF0F20FDF74AFB01219420FDF75EFBA8
:102EF000C0461800BD4680BD80B586B000AF786082
:102F000000237B610023FB6000233B617B6818008A
:102F1000FEF7FCF90300FB6000233B6105E07B69E1
:102F200019337B613B6901333B613A69FB689A4223
:102F3000F5D37B691800BD4606B080BD80B584B06E
:102F400000AFF860B9607A603B603B681B78002B8B
:102F500017D1FB68BA68802109018C46624492004F
:102F6000D35801217A6891400A00D2431A401100D7
:102F7000FB68BA6880200001844662449200D15008
:102F800032E03B685B78002B0CD101227B689A40D1
:102F90001100FB68BA688A200001844662449200EE
:102FA000D1500BE001227B689A401100FB68BA689F
:102FB00088200001844662449200D150FB68BA68C0
:102FC000802109018C4662449200D25801217B681D
:102FD00099400B001A431100FB68BA688020000179
:102FE000844662449200D150C046BD4604B080BDC4
:102FF00080B582B000AF78600A00FB1C1A70FB1C21
:103000001B7801229A407B685A62C046BD4602B0D6
:1030100080BD80B582B000AF0200FB1D1A70FB1DA1
:103020001B781800FEF7ACFBFB1D1B781800FEF7A1
:10303000CBFBC046BD4602B080BD80B582B000AFBC
:1030400078607B681B68042213405A1E9341DBB2F0
:103050001800BD4602B080BD80B582B000AF786078
:103060000A00FB1C1A70FB1C1B78002B0DD07B6820
:103070001B6801221A437B681A607B685B684022E8
:1030800093431A007B685A6005E07B685B684022C6
:103090001A437B685A60C046BD4602B080BD80B509
:1030A00082B000AF78600A00FB1C1A70FB1C1B7812
:1030B000002B06D07B681B6801221A437B681A60CC
:1030C0000BE07B685B684022134006D07B681B687E
:1030D000012293431A007B681A60C046BD4602B0C5
:1030E00080BD80B500AFFEF773FFC046BD4680BD12
:1030F00080B500AFC046BD4680BD80B500AFFEF7CD
:10310000C7FFC046BD4680BD80B500AFC046BD46C6
:1031100080BD10B5FFF796FAFDF7CAFA10BDFEE7BD
:1031200010B500F091F810BD10B5002811D0802125
:103130000C38490501608268002A0AD013688B4266
:1031400007D14368546803331B1943609368836055
:10315000F1E710BD70B50D000400207800280FD0F5
:10316000AB68013BAB60002B05DB2B685A1C2A6067
:1031700018700134F1E72900FFF74AF8431CF8D131
:1031800070BD03000B4330B59B0707D00024A2425B
:103190000BD100200FE004300431043A032AF5D9A2
:1031A00003680C68A342F6D0F0E7035D651C0C5D74
:1031B000A34201D0181B30BD2C00E8E710B5040075
:1031C000FFF7A2FA0100200000F05CF810BD030038
:1031D0000B4321D4002931D00122D207030901E099
:1031E000090112099942FBD9430801E0490052083C
:1031F0009942FBD900E04908401A07D35241FAD35B
:1032000001461046704749084018F7D29218FAD381
:103210004018014610467047CB0F00D049420210BB
:1032200000D54042534008B5FFF7D4FF0CBC521004
:1032300000D34042002A00D549421847F4460020F6
:1032400000F001F8604770478446043A09D38307C9
:1032500007D109060B0A19430B0C1943043A02C0A3
:10326000FCD2043203D001700130013AFBD1604638
:1032700070470120404270470120404270470120C2
:103280004042704701204042704701204042704751
:1032900001204042704710007047FFFF4F4B0D0A5E
:1032A00000000000300D0A00340D0A002B43474196
:1032B00054543A20310D0A300D0A00002B43474187
:1032C00054543A20300D0A300D0A0000300D0A0D1A
:1032D0000A434F4E4E454354204F4B0D0A00000009
:1032E0000D0A3E20000000000D0A53454E44204FB9
:1032F0004B0D0A20020000000D0A53454E44204F9A
:103300004B0D0A90030001000000000041544530BD
:103310000D000D0A4F4B0D0A00000000340D0A0D80
:103320000A434C4F5345440D0A0000002B435049BB
:103330004E3A2052454144590D0A300D0A00000012
:103340002B4350494E3A204E4F5420524541445948
:103350000D0A0000340D0A0D0A2B5044503A204447
:10336000454143540D0A0000415445300D0A000008
:10337000415456300D0A000041542B4350494E3FF2
:103380000D0A000041542B4353510D0A0000000068
:1033900041542B435245473F0D0A000041542B43F3
:1033A000494943520D0A000041542B4349465352A8
:1033B0000D0A000041542B43474154543F0D0A006D
:1033C00041542B4347534E0D0A00000041542B43F8
:1033D000495053544152543D22544350222C226AA6
:1033E000696E676A696E672D6D7174742E66656E9D
:1033F000676C696E666C2E636F6D222C22313838D3
:1034000033220D0A0000000041542B43495053451C
:103410004E440D0A00000000104100064D51497352
:10342000647003C2003C00166D6F73717375627C2B
:1034300031313331312D687964726F67656E000800
:103440006A696E676A696E670011656973656E39CE
:103450003939396A696E676A696E671A82090001CB
:10346000000474657374001A000000005245535044
:103470004F4E53453A00000041545F434741545476
:103480003D310D0A0000000041542B4346554E3D8E
:10349000312C310D0A00FFFF2E2E2F6472697665E4
:1034A00072732F66736C5F636C6F636B2E633A3855
:1034B00033203A2062617365000000002E2E2F64D5
:1034C0007269766572732F66736C5F636C6F636B82
:1034D0002E633A323532203A20636F6E6669672D6B
:1034E0003E74617267657446726571203C3D20537D
:1034F0005953504C4C5F4D41585F4F5554505554A3
:103500005F465245515F485A000000002E2E2F643E
:103510007269766572732F66736C5F636C6F636B31
:103520002E633A323635203A20696E7075744672D1
:10353000657120213D203055000000002E2E2F64A3
:103540007269766572732F66736C5F636C6F636B01
:103550002E633A333237203A207764744F736344D2
:103560006976203E3D20325500FFFFFFAE1000007F
:10357000B8100000EA100000C2100000CC100000DB
:10358000E0100000EA100000D61000002E2E2F647C
:103590007269766572732F66736C5F646D612E68F5
:1035A0003A323638203A206368616E6E656C203C92
:1035B0002046534C5F464541545552455F444D416A
:1035C0005F4E554D4245525F4F465F4348414E4E18
:1035D000454C536E28626173652900002E2E2F64BE
:1035E0007269766572732F66736C5F646D612E68A5
:1035F0003A323830203A206368616E6E656C203C48
:103600002046534C5F464541545552455F444D4119
:103610005F4E554D4245525F4F465F4348414E4EC7
:10362000454C536E28626173652900002E2E2F646D
:103630007269766572732F66736C5F646D612E6854
:103640003A333034203A206368616E6E656C203CFA
:103650002046534C5F464541545552455F444D41C9
:103660005F4E554D4245525F4F465F4348414E4E77
:10367000454C536E28626173652900002E2E2F641D
:103680007269766572732F66736C5F646D612E6804
:103690003A333136203A206368616E6E656C203CA7
:1036A0002046534C5F464541545552455F444D4179
:1036B0005F4E554D4245525F4F465F4348414E4E27
:1036C000454C536E28626173652900002E2E2F64CD
:1036D0007269766572732F66736C5F646D612E68B4
:1036E0003A333238203A206368616E6E656C203C54
:1036F0002046534C5F464541545552455F444D4129
:103700005F4E554D4245525F4F465F4348414E4ED6
:10371000454C536E28626173652900002E2E2F647C
:103720007269766572732F66736C5F646D612E6863
:103730003A333431203A206368616E6E656C203C08
:103740002046534C5F464541545552455F444D41D8
:103750005F4E554D4245525F4F465F4348414E4E86
:10376000454C536E28626173652900002E2E2F642C
:103770007269766572732F66736C5F646D612E6318
:103780003A313130203A20696E7374616E6365207E
:103790003C2041525241595F53495A4528735F6456
:1037A0006D61426173657329000000002E2E2F6445
:1037B0007269766572732F66736C5F646D612E63D8
:1037C0003A313534203A20286368616E6E656C208A
:1037D0003C2046534C5F464541545552455F444D4D
:1037E000415F4E554D4245525F4F465F4348414E03
:1037F0004E454C536E286261736529292026262088
:10380000284E554C4C20213D2074726967676572C3
:10381000290000002E2E2F647269766572732F6660
:10382000736C5F646D612E633A313733203A2063E5
:1038300068616E6E656C203C2046534C5F46454186
:10384000545552455F444D415F4E554D4245525F80
:103850004F465F4348414E4E454C536E286261735C
:10386000652900002E2E2F647269766572732F66AB
:10387000736C5F646D612E633A323037203A207882
:1038800066657263666720213D204E554C4C0000F2
:103890002E2E2F647269766572732F66736C5F6467
:1038A0006D612E633A323039203A2028786665728D
:1038B0006366672D3E737263496E63203D3D203021
:1038C00029207C7C2028786665726366672D3E73AC
:1038D0007263496E63203D3D203129207C7C202885
:1038E000786665726366672D3E737263496E632006
:1038F0003D3D203229207C7C2028786665726366F5
:10390000672D3E737263496E63203D3D203429006C
:103910002E2E2F647269766572732F66736C5F64E6
:103920006D612E633A323131203A20287866657213
:103930006366672D3E647374496E63203D3D20309D
:1039400029207C7C2028786665726366672D3E643A
:103950007374496E63203D3D203129207C7C2028F2
:10396000786665726366672D3E647374496E632082
:103970003D3D203229207C7C202878666572636674
:10398000672D3E647374496E63203D3D20342900E9
:103990002E2E2F647269766572732F66736C5F6466
:1039A0006D612E633A323133203A20287866657291
:1039B0006366672D3E627974655769647468203D5B
:1039C0003D203129207C7C202878666572636667FB
:1039D0002D3E627974655769647468203D3D2032DC
:1039E00029207C7C2028786665726366672D3E629C
:1039F0007974655769647468203D3D20342900005E
:103A00002E2E2F647269766572732F66736C5F64F5
:103A10006D612E633A323135203A207866657263E3
:103A200066672D3E7472616E73666572436F756E64
:103A300074203C3D20444D415F4D41585F545241FC
:103A40004E534645525F434F554E54002E2E2F6421
:103A50007269766572732F66736C5F646D612E6335
:103A60003A323530203A20284E554C4C20213D200A
:103A70006465736329202626202830203D3D2028B8
:103A800075696E7433325F74296465736320252011
:103A900031362920262620284E554C4C20213D2009
:103AA0007866657263666729000000002E2E2F6419
:103AB0007269766572732F66736C5F646D612E63D5
:103AC0003A323531203A20284E554C4C20213D20A9
:103AD0007372634164647229202626202830203DB9
:103AE0003D202875696E7433325F742973726341A7
:103AF000646472202520786665726366672D3E6275
:103B00007974655769647468290000002E2E2F644B
:103B10007269766572732F66736C5F646D612E6374
:103B20003A323532203A20284E554C4C20213D2047
:103B30006473744164647229202626202830203D55
:103B40003D202875696E7433325F74296473744143
:103B5000646472202520786665726366672D3E6214
:103B60007974655769647468290000002E2E2F64EB
:103B70007269766572732F66736C5F646D612E6314
:103B80003A323533203A20284E554C4C203D3D20CA
:103B90006E6578744465736329207C7C202830200E
:103BA0003D3D202875696E7433325F74296E6578E7
:103BB0007444657363202520313629002E2E2F642E
:103BC0007269766572732F66736C5F646D612E63C4
:103BD0003A323636203A204E554C4C20213D206852
:103BE000616E646C650000002E2E2F64726976652C
:103BF00072732F66736C5F646D612E633A3237386F
:103C0000203A20284E554C4C20213D2068616E649E
:103C10006C652920262620286368616E6E656C20FD
:103C20003C2046534C5F464541545552455F444DF8
:103C3000415F4E554D4245525F4F465F4348414EAE
:103C40004E454C536E2862617365292900000000BF
:103C50002E2E2F647269766572732F66736C5F64A3
:103C60006D612E633A323936203A2068616E646C99
:103C70006520213D204E554C4C0000002E2E2F6417
:103C80007269766572732F66736C5F646D612E6303
:103C90003A333131203A20284E554C4C20213D20DA
:103CA000636F6E6669672920262620284E554C4C86
:103CB00020213D20737263416464722920262620EE
:103CC000284E554C4C20213D20647374416464722D
:103CD000290000002E2E2F647269766572732F669C
:103CE000736C5F646D612E633A333132203A202861
:103CF000627974655769647468203D3D20312920DC
:103D00007C7C2028627974655769647468203D3D25
:103D1000203229207C7C202862797465576964747C
:103D200068203D3D203429002E2E2F64726976656F
:103D300072732F66736C5F646D612E633A33313634
:103D4000203A2028786665725F636F756E74203C38
:103D50003D20444D415F4D41585F5452414E5346C2
:103D600045525F434F554E542920262620283020A7
:103D70003D3D207472616E7366657242797465733D
:103D800020252062797465576964746829000000F1
:103D90002E2E2F647269766572732F66736C5F6462
:103DA0006D612E633A333539203A20284E554C4CFC
:103DB00020213D2068616E646C652920262620281C
:103DC0004E554C4C20213D20636F6E66696729007B
:103DD0002E2E2F647269766572732F66736C5F6422
:103DE0006D612E633A333836203A204E554C4C20C4
:103DF000213D2068616E646C6500FFFF2E2E2F64EC
:103E00007269766572732F66736C5F6770696F2E67
:103E1000633A3630203A20706F7274203C20415251
:103E20005241595F53495A4528735F6770696F4320
:103E30006C6F636B4E616D652900FFFF2E2E2F6442
:103E40007269766572732F66736C5F7265736574E1
:103E50002E633A3632203A20626974506F73203CE8
:103E600020333275000000002E2E2F6472697665B3
:103E700072732F66736C5F72657365742E633A3765
:103E800034203A20626974506F73203C20333275BD
:103E900000FFFFFF2E2E2F647269766572732F6606
:103EA000736C5F7370692E683A333938203A204E4C
:103EB000554C4C20213D2062617365002E2E2F64ED
:103EC0007269766572732F66736C5F7370692E68A2
:103ED0003A343330203A204E554C4C20213D20625C
:103EE000617365002E2E2F647269766572732F667A
:103EF000736C5F7370692E683A343434203A204E04
:103F0000554C4C20213D2062617365002E2E2F649C
:103F10007269766572732F66736C5F7370692E6356
:103F20003A313631203A204E554C4C20213D20620A
:103F3000617365002E2E2F647269766572732F6629
:103F4000736C5F7370692E633A313733203A2066A1
:103F5000616C7365000000002E2E2F647269766517
:103F600072732F66736C5F7370692E633A313836E3
:103F7000203A204E554C4C20213D20636F6E6669DF
:103F8000670000002E2E2F647269766572732F66AB
:103F9000736C5F7370692E633A313934203A204E66
:103FA000554C4C20213D20636F6E66696700000010
:103FB0002E2E2F647269766572732F66736C5F7331
:103FC00070692E633A323136203A202128284E5526
:103FD0004C4C203D3D206261736529207C7C20286B
:103FE0004E554C4C203D3D20636F6E66696729201D
:103FF0007C7C202830203D3D20737263436C6F63CE
:104000006B5F487A292900002E2E2F64726976652D
:1040100072732F66736C5F7370692E633A32353634
:10402000203A204E554C4C20213D20636F6E66692E
:10403000670000002E2E2F647269766572732F66FA
:10404000736C5F7370692E633A323731203A2021E6
:1040500028284E554C4C203D3D2062617365292037
:104060007C7C20284E554C4C203D3D20636F6E6675
:1040700069672929000000002E2E2F647269766579
:1040800072732F66736C5F7370692E633A333030CE
:10409000203A204E554C4C20213D20626173650032
:1040A0002E2E2F647269766572732F66736C5F7340
:1040B00070692E633A333133203A202128284E5537
:1040C0004C4C203D3D206261736529207C7C20287A
:1040D00030203D3D2062617564726174655F42709D
:1040E0007329207C7C202830203D3D20737263435F
:1040F0006C6F636B5F487A29290000002E2E2F64B5
:104100007269766572732F66736C5F7370692E6364
:104110003A333330203A204E554C4C20213D20621A
:10412000617365002E2E2F647269766572732F6637
:10413000736C5F7370692E633A333436203A2028EB
:104140004E554C4C20213D206261736529207C7CBA
:1041500020284E554C4C20213D2068616E646C65D2
:10416000290000002E2E2F647269766572732F6607
:10417000736C5F7370692E633A333739203A2021AC
:1041800028284E554C4C203D3D2062617365292006
:104190007C7C20284E554C4C203D3D207866657235
:1041A00029207C7C2028284E554C4C203D3D2078F1
:1041B0006665722D3E74784461746129202626203C
:1041C000284E554C4C203D3D20786665722D3E7240
:1041D0007844617461292929000000002E2E2F6483
:1041E0007269766572732F66736C5F7370692E6384
:1041F0003A343637203A202128284E554C4C203D61
:104200003D206261736529207C7C20284E554C4CF2
:10421000203D3D2068616E646C6529207C7C2028EF
:104220004E554C4C203D3D207866657229207C7CA3
:104230002028284E554C4C203D3D20786665722D37
:104240003E7478446174612920262620284E554CFE
:104250004C203D3D20786665722D3E727844617435
:1042600061292929000000002E2E2F6472697665CD
:1042700072732F66736C5F7370692E633A353530D5
:10428000203A204E554C4C20213D2068616E646CD4
:10429000650000002E2E2F647269766572732F669A
:1042A000736C5F7370692E633A353730203A204E55
:1042B000554C4C20213D2068616E646C6500000007
:1042C0002E2E2F647269766572732F66736C5F731E
:1042D00070692E633A353831203A20284E554C4CBF
:1042E00020213D20626173652920262620284E5515
:1042F0004C4C20213D2068616E646C6529000000F3
:104300002E2E2F647269766572732F66736C5F73DD
:1043100070692E633A363138203A20284E554C4C7D
:1043200020213D20626173652920262620284E55D4
:104330004C4C20213D2068616E646C6529000000B2
:104340002E2E2F647269766572732F66736C5F739D
:1043500070692E633A363730203A20735F73706984
:1043600048616E646C655B305D0000002E2E2F642A
:104370007269766572732F66736C5F7370692E63F2
:104380003A363738203A20735F73706948616E643B
:104390006C655B315D00FFFF2E2E2F6472697665C0
:1043A00072732F66736C5F73776D2E633A353720A7
:1043B0003A204E554C4C20213D206261736500002F
:1043C0002E2E2F647269766572732F66736C5F731D
:1043D000776D2E633A3538203A2066756E63203C3F
:1043E000206B53574D5F4D4F5641424C455F4E55E4
:1043F0004D5F46554E4353002E2E2F6472697665ED
:1044000072732F66736C5F73776D2E633A39372042
:104410003A204E554C4C20213D20626173650000CE
:104420002E2E2F647269766572732F66736C5F73BC
:10443000776D2E633A3938203A202866756E6320EE
:104440003E203029207C7C2066756E63203C206BEA
:1044500053574D5F464958454450494E5F4E554D60
:104460005F46554E435300FF004006400080064023
:1044700000C006400E0F10FF030405FF2E2E2F6410
:104480007269766572732F66736C5F75736172748F
:104490002E633A3931203A2066616C736500000062
:1044A0002E2E2F647269766572732F66736C5F753A
:1044B000736172742E633A313030203A204E554C7D
:1044C0004C20213D2068616E646C65002E2E2F64A7
:1044D0007269766572732F66736C5F75736172743F
:1044E0002E633A313138203A204E554C4C20213D34
:1044F0002068616E646C65002E2E2F64726976658B
:1045000072732F66736C5F75736172742E633A31C8
:104510003334203A204E554C4C20213D20626173AB
:10452000650000002E2E2F647269766572732F6607
:10453000736C5F75736172742E633A313335203A50
:10454000204E554C4C20213D2068616E646C650006
:104550002E2E2F647269766572732F66736C5F7589
:10456000736172742E633A313336203A204E554CC3
:104570004C20213D2072696E674275666665720047
:104580002E2E2F647269766572732F66736C5F7559
:10459000736172742E633A313531203A204E554C96
:1045A0004C20213D20626173650000002E2E2F6497
:1045B0007269766572732F66736C5F75736172745E
:1045C0002E633A313532203A204E554C4C20213D55
:1045D0002068616E646C65002E2E2F6472697665AA
:1045E00072732F66736C5F75736172742E633A31E8
:1045F0003730203A202128284E554C4C203D3D2074
:104600006261736529207C7C20284E554C4C203DEE
:104610003D20636F6E66696729207C7C20283020EE
:104620003D3D20737263436C6F636B5F487A292949
:10463000000000002E2E2F647269766572732F665B
:10464000736C5F75736172742E633A323034203A42
:10465000204E554C4C20213D2062617365000000C6
:104660002E2E2F647269766572732F66736C5F7578
:10467000736172742E633A323138203A204E554CB1
:104680004C20213D20636F6E666967002E2E2F64DB
:104690007269766572732F66736C5F75736172747D
:1046A0002E633A323334203A202128284E554C4C80
:1046B000203D3D206261736529207C7C20283020CC
:1046C0003D3D2062617564726174655F427073295B
:1046D000207C7C202830203D3D20737263436C6F2A
:1046E000636B5F487A2929002E2E2F6472697665E4
:1046F00072732F66736C5F75736172742E633A32D6
:104700003939203A202128284E554C4C203D3D2057
:104710006261736529207C7C20284E554C4C203DDD
:104720003D20646174612929000000002E2E2F6451
:104730007269766572732F66736C5F7573617274DC
:104740002E633A333230203A202128284E554C4CE3
:10475000203D3D206261736529207C7C20284E55D8
:104760004C4C203D3D20646174612929000000000B
:104770002E2E2F647269766572732F66736C5F7567
:10478000736172742E633A333637203A2021282819
:104790004E554C4C203D3D206261736529207C7C48
:1047A00020284E554C4C203D3D2068616E646C6560
:1047B000292900002E2E2F647269766572732F6688
:1047C000736C5F75736172742E633A333931203ABA
:1047D000202128284E554C4C203D3D2062617365B8
:1047E00029207C7C20284E554C4C203D3D20686182
:1047F0006E646C6529207C7C20284E554C4C203DF5
:104800003D20786665722929000000002E2E2F6455
:104810007269766572732F66736C5F7573617274FB
:104820002E633A333933203A2021282830203D3D69
:1048300020786665722D3E6461746153697A6529DA
:10484000207C7C20284E554C4C203D3D20786665D0
:10485000722D3E6461746129290000002E2E2F64A0
:104860007269766572732F66736C5F7573617274AB
:104870002E633A343136203A204E554C4C20213D9F
:104880002068616E646C65002E2E2F6472697665F7
:1048900072732F66736C5F75736172742E633A3432
:1048A0003237203A204E554C4C20213D2068616E15
:1048B000646C65002E2E2F647269766572732F66A4
:1048C000736C5F75736172742E633A343238203AB8
:1048D000204E554C4C20213D20636F756E740000B6
:1048E0002E2E2F647269766572732F66736C5F75F6
:1048F000736172742E633A343534203A20212828AB
:104900004E554C4C203D3D206261736529207C7CD6
:1049100020284E554C4C203D3D2068616E646C65EE
:1049200029207C7C20284E554C4C203D3D2078662B
:1049300065722929000000002E2E2F6472697665A9
:1049400072732F66736C5F75736172742E633A3481
:104950003536203A2021282830203D3D20786665D4
:10496000722D3E6461746153697A6529207C7C20D4
:10497000284E554C4C203D3D20786665722D3E6496
:1049800061746129290000002E2E2F6472697665FA
:1049900072732F66736C5F75736172742E633A3530
:1049A0003431203A204E554C4C20213D2068616E18
:1049B000646C65002E2E2F647269766572732F66A3
:1049C000736C5F75736172742E633A353535203AB6
:1049D000204E554C4C20213D2068616E646C650072
:1049E0002E2E2F647269766572732F66736C5F75F5
:1049F000736172742E633A353536203A204E554C29
:104A00004C20213D20636F756E7400002E2E2F64A4
:104A10007269766572732F66736C5F7573617274F9
:104A20002E633A353731203A20284E554C4C202100
:104A30003D20626173652920262620284E554C4C66
:104A400020213D2068616E646C6529002E2E2F6246
:104A50006F6172642F626F6172642E633A35382021
:104A60003A206B5374617475735F53756363657338
:104A700073203D3D20726573756C74002E2E2F647B
:104A80007269766572732F66736C5F636C6F636BAC
:104A90002E683A333837203A2076616C75652021CC
:104AA0003D20305500FFFFFF0101FFFF0300000024
:104AB0002A2A2A20617373657274206661696C65A5
:104AC00064203A20002A2A2A205F437379735F61A9
:104AD0006C6C6F63206661696C65640A00720077B4
:044AE00000FFFFFFD5
:104AE40082140001000F000000000000000000001C
:104AF4000000000000001AFF3014000F0000000046
:104B04000000000000000000000000000000FFFFA3
:044B1400001BB700CB
:04000003000000D524
:00000001FF
