:1000000000200010D5000000490100007D03000021
:1000100000000000000000000000000065DAFFEFB3
:100020000000000000000000000000004D01000082
:1000300000000000000000004F0100002505000046
:10004000550100005D010000650100006D01000028
:10005000690500007D010000850100008D010000A0
:1000600095010000211E0000A5010000AD01000067
:10007000B5010000BD010000C5010000CD01000078
:10008000D5010000DD010000E5010000ED010000E8
:10009000F5010000FD010000050200000D02000056
:1000A000150200001D020000250200002D020000C4
:1000B000350200003D020000450200004D02000034
:1000C000584B0000800000106C000000EC00001095
:1000D0000804000010B572B602F046FB0D4B07E0B5
:1000E000186859681C000C349A6800F019F823004D
:1000F000094A9342F4D306E018681C000834596892
:1001000000F019F82300054A9342F5D362B603F0D4
:1001100067F8FEE7C0000000CC000000D40000003B
:1001200010B5002304E004680C600433043004318B
:100130009342F8D310BD002303E000220260043391
:1001400004308B42F9D37047FEE7FEE7FEE7FEE797
:10015000FEE7FEE710B501F091FE10BD10B501F00D
:10016000A7FE10BD10B5FFF7F4FF10BD10B502F0EB
:1001700057F910BD10B502F065F910BD10B502F0C9
:1001800073F910BD10B5FFF7E4FF10BD10B501F015
:1001900007FD10BD10B501F0F3FC10BD10B5FFF761
:1001A000D8FF10BD10B5FFF7D4FF10BD10B5FFF795
:1001B000D0FF10BD10B5FFF7CCFF10BD10B5FFF795
:1001C000C8FF10BD10B5FFF7C4FF10BD10B5FFF795
:1001D000C0FF10BD10B5FFF7BCFF10BD10B5FFF795
:1001E000B8FF10BD10B5FFF7B4FF10BD10B5FFF795
:1001F000B0FF10BD10B501F069FC10BD10B501F0E5
:10020000DFFC10BD10B5FFF7A4FF10BD10B5FFF760
:10021000A0FF10BD10B501F0FDFC10BD10B501F040
:100220001FFD10BD10B501F041FD10BD10B501F06E
:1002300063FD10BD10B501F085FD10BD10B5FFF7D1
:1002400088FF10BD10B5FFF784FF10BD10B5FFF794
:1002500080FF10BDFFFFFFFFFFFFFFFFFFFFFFFF5E
:10026000FFFFFFFFFFFFFFFFFFFFFFFFFFFFFFFF9E
:10027000FFFFFFFFFFFFFFFFFFFFFFFFFFFFFFFF8E
:10028000FFFFFFFFFFFFFFFFFFFFFFFFFFFFFFFF7E
:10029000FFFFFFFFFFFFFFFFFFFFFFFFFFFFFFFF6E
:1002A000FFFFFFFFFFFFFFFFFFFFFFFFFFFFFFFF5E
:1002B000FFFFFFFFFFFFFFFFFFFFFFFFFFFFFFFF4E
:1002C000FFFFFFFFFFFFFFFFFFFFFFFFFFFFFFFF3E
:1002D000FFFFFFFFFFFFFFFFFFFFFFFFFFFFFFFF2E
:1002E000FFFFFFFFFFFFFFFFFFFFFFFFFFFFFFFF1E
:1002F000FFFFFFFFFFFFFFFFFFFFFFFFFFFFFFFF0E
:1003000090B589B000AFF860B9603B60FB1D1A7012
:10031000FB1D1B78082B01D0012324E0144BFA1D90
:1003200012781A70FA68124B5A6014210C007B186C
:10033000180001F025FF21007B18BA681A607B18AD
:1003400001221A717B1801225A71094B5B683A68C5
:100350007918180001F094FE054B064A9A60044B88
:10036000054ADA6000231800BD4609B090BDC046BA
:10037000EC000010E122000041230000042071463F
:10038000084202D0EFF3098001E0EFF308808169B1
:100390000A88054B9A4200D0FEE702318161202194
:1003A00001607047C0460000ABBE000080B582B05F
:1003B00000AF0200FB1D1A70FB1D1B787F2B09D8B4
:1003C000FB1D1B781A001F231A40044B012191408A
:1003D0000A001A60C046BD4602B080BD00E100E0E0
:1003E00090B583B000AF02003960FB1D1A70FB1D91
:1003F0001B787F2B28D82F4AFB1D1B785BB29B08EC
:10040000C0339B009B58FA1D1278110003220A404A
:10041000D200FF2191400A00D2431A4011003B68EC
:100420009B01FF221A40FB1D1B7818000323034089
:10043000DB009A401F48FB1D1B785BB29B080A43F8
:10044000C0339B001A5031E01B4AFB1D1B7819007A
:100450000F230B40083B9B0806339B00D318043343
:100460001B68FA1D1278110003220A40D200FF21F6
:1004700091400A00D2431A4011003B689B01FF22C1
:100480001A40FB1D1B78180003230340DB009A4031
:100490000948FB1D1B781C000F232340083B9B08C9
:1004A0000A4306339B00C31804331A60C046BD4696
:1004B00003B090BD00E100E000ED00E080B500AFCA
:1004C000BFF34F8F034B044ADA60BFF34F8FC04630
:1004D000FDE7C04600ED00E00400FA0580B582B0FB
:1004E00000AF78607B68013B0C4A934201D901233D
:1004F00010E00B4B7A68013A5A6001235B420321FA
:100500001800FFF76DFF064B00229A60044B07228C
:100510001A6000231800BD4602B080BDFFFFFF0037
:1005200010E000E080B500AF054B1B68002B04D045
:10053000034B1B685A1E024B1A60C046BD4680BD65
:10054000A002001080B582B000AF7860054B7A68D9
:100550001A60C046034B1B68002BFBD1C046BD464A
:1005600002B080BDA0020010B0B584B000AF1F4B38
:10057000180002F005FD02000123134031D00B25C5
:100580007C191A4B180002F013FD03002370184B5E
:100590001B78DBB25A1CD1B2154A11701900154BE9
:1005A0007A1912785A54114B180002F0E9FC030032
:1005B0007B607B68042213405A425341DBB2FB60EC
:1005C0000CE00A4B180002F0DBFC03007B607B6848
:1005D000042213405A425341DBB2FB60FB68002BFC
:1005E000EFD1C046BD4604B0B0BDC0460080064055
:1005F000F20400103C020010F0B5A1B000AF02F010
:10060000E3FD02F0D5FD02F0DAFD01F06FFF984B3B
:100610001A68FA239900100002F047FE0300180040
:10062000FFF75CFF031E00D0FEE700F05BFF00F069
:1006300073FE00F049FE8F4B00229A608D4B002222
:100640005A618C4B00221A618A4B0022DA60894B76
:1006500007221A71874B00229A61874B00221A6287
:10066000854B00225A6274257B19844A13CA13C32E
:100670006C26BB19824A1168196092889A80682397
:10068000FB18804A1188198092789A706422BB18EE
:100690007D4A1188198092789A7050217B187B4A84
:1006A00013CA13C31168196012791A7144203B18D8
:1006B000774A12CA12C31188198092789A7034242A
:1006C0003B19744A13CA13C312881A801C243B199D
:1006D000180017231A00002102F08DFD3B19342267
:1006E0001A703B190D225A703B190A229A703B1955
:1006F0000D22DA703B190A221A713B1941225A71F4
:100700003B194C229A713B195222DA713B1945224E
:100710001A723B1941225A723B1944229A723B19B0
:100720005922DA723B1920221A733B1943225A7359
:100730003B194F229A733B194E22DA733B194E2212
:100740001A743B1945225A743B1943229A743B1977
:100750005422DA743B190D221A753B190A225A7574
:100760000822BB184C4A23CA23C311681960928817
:100770009A803B1D494A12681A6074257919484BC2
:100780000C22180002F033FDB919464B062218005E
:1007900002F02DFD6823F918434B0322180002F0E4
:1007A00026FD6422B918414B0322180002F01FFDF8
:1007B000502179183E4B1122180002F018FD4420F8
:1007C00039183C4B0B22180002F011FD3423F918A4
:1007D000394B0E22180002F00AFD3919374B172247
:1007E000180002F004FD0822B918354B1222180037
:1007F00002F0FDFC391D334B0422180002F0F7FC17
:10080000314B180000F06AF8304B1B685A1C2F4B14
:100810001A6000F0CFF800F07FF900F0A7FB00F0BD
:1008200057FC00F001FD00F063FB294B1B78012B06
:10083000EAD1A023180601230D22002102F086FB35
:10084000244B1B781A00244B53431800FFF77AFE01
:100850001F4B00221A701F4B00221A70A02318068B
:1008600000230D22002102F071FBFFF727FECBE7EA
:10087000E8000010A4020010C00200109C33000029
:10088000A8330000B0330000B4330000B8330000D8
:10089000CC330000D8330000E8330000FC33000004
:1008A000F0020010FC02001002030010050300100B
:1008B000130300100803001024030010320300107B
:1008C000490300105B030010FC00001060030010DF
:1008D000F1040010F004001060EA000080B582B05E
:1008E00000AF7860144BDB68002B20D17B685B681D
:1008F000002B1CD1114B64220021180002F07BFC5C
:100900000F4B00221A700C4B0122DA607B68012227
:100910005A607B681B695A1C7B681A617B6819687E
:100920007B685B691A00074B180001F0D9FCC046D0
:10093000BD4602B080BDC046A40200103C020010BB
:10094000F20400100080064080B582B000AF7860ED
:10095000144BDB68002B20D17B685B68002B1CD11B
:10096000114B64220021180002F045FC0F4B0022BD
:100970001A700C4B0122DA607B6801225A607B6896
:100980001B695A1C7B681A617B6819687B685B6904
:100990001A00074B180001F0A3FCC046BD4602B088
:1009A00080BDC046A40200103C020010F2040010FA
:1009B0000080064080B500AF4D4B9B68012B0BD1EA
:1009C0004B4B00229A60FA235B001800FFF7BAFD38
:1009D000484B1800FFF782FF464B9B68012B0BD159
:1009E000444B00229A60FA235B001800FFF7AAFD2F
:1009F000414B1800FFF772FF3F4B9B68012B0BD157
:100A00003D4B00229A60FA235B001800FFF79AFD25
:100A10003A4B1800FFF762FF384B9B68012B0BD154
:100A2000364B00229A60FA235B001800FFF78AFD1C
:100A3000334B1800FFF752FF314B9B68012B0BD152
:100A40002F4B00229A60FA239B001800FFF77AFDD3
:100A50002C4B1800FFF742FF2A4B9B68012B0BD150
:100A6000284B00229A60FA239B001800FFF76AFDCA
:100A7000254B1800FFF732FF234B9B68012B0FD14A
:100A8000224B1B68002B0BD11F4B00229A60FA23CC
:100A90009B001800FFF756FD1D4B1800FFF754FF91
:100AA0001B4B9B68012B0BD1194B00229A60FA2338
:100AB0009B001800FFF746FD134B1800FFF70EFFD1
:100AC000114B9B68012B0FD1104B5B68002B0BD196
:100AD0000D4B00229A60FA239B001800FFF732FDAD
:100AE0000C4B1800FFF730FFC046BD4680BDC04626
:100AF000FC00001014010010EC0100107401001043
:100B00008C010010A4010010BC010010E8020010CC
:100B1000040200102002001080B500AF214B5B687A
:100B2000012B03D11F4B180000F04AF81E4B5B68E5
:100B3000012B03D11C4B180000F042F81B4B5B68E3
:100B4000012B03D1194B180000F03AF8184B5B68E1
:100B5000012B03D1164B180000F032F8154B5B68DF
:100B6000012B03D1134B180000F02AF8124B5B68DD
:100B7000012B03D1104B180000F03EF90B4B5B68C2
:100B8000012B03D1094B180000F038FA0B4B5B68BE
:100B9000012B03D1094B180000F000F9C046BD46F7
:100BA00080BDC046FC00001014010010EC010010D4
:100BB000740100108C010010A4010010BC01001091
:100BC00080B582B000AF78606A496B4B0C22180088
:100BD00002F042FB031E15D1684B0022DA607B68ED
:100BE00000225A607B6801229A607B680022DA60EA
:100BF000604B64220021180002F0FDFA604B0022D5
:100C00001A70B2E05B495F4B0622180002F024FB29
:100C1000031E15D1594B0022DA607B6800225A600E
:100C20007B6801229A607B680022DA60514B642263
:100C30000021180002F0DFFA514B00221A7094E0F4
:100C40004C49514B0322180002F006FB031E15D13C
:100C50004A4B0022DA607B6800225A607B680122DE
:100C60009A607B680022DA60424B642200211800FF
:100C700002F0C1FA424B00221A7076E03D49434B24
:100C80000322180002F0E8FA031E15D13B4B0022A4
:100C9000DA607B6800225A607B6800229A607B6879
:100CA0000122DA60334B64220021180002F0A3FA1B
:100CB000334B00221A7058E02E49354B1122180090
:100CC00002F0CAFA031E15D12C4B0022DA607B68B1
:100CD00000225A607B6801229A607B680022DA60F9
:100CE000244B64220021180002F085FA244B0022D4
:100CF0001A703AE01F49274B0B22180002F0ACFA99
:100D0000031E15D11D4B0022DA607B6800225A6059
:100D10007B6801229A607B680022DA60154B6422AE
:100D20000021180002F067FA154B00221A701CE02F
:100D30001049194B1222180002F08EFA031E14D12A
:100D40000E4B0022DA607B6800225A607B68012229
:100D50009A607B680022DA60064B6422002118004A
:100D600002F049FA064B00221A70C046BD4602B096
:100D700080BDC0463C020010F0020010A40200102A
:100D8000F2040010FC020010020300100503001022
:100D900013030010080300104903001080B582B04F
:100DA00000AF78601049114B0422180002F054FA89
:100DB000031E14D10E4B0022DA607B6800225A60B9
:100DC0007B6801229A607B680022DA60064B64220D
:100DD0000021180002F00FFA064B00221A70C046DC
:100DE000BD4602B080BDC0463C0200105B0300104F
:100DF000A4020010F204001080B582B000AF786049
:100E00003449354B0322180002F026FA031E09D19B
:100E1000304B64220021180002F0EDF92F4B002224
:100E20001A7010E02B492E4B0322180002F014FA1E
:100E3000031E08D1274B64220021180002F0DBF9C1
:100E4000264B00221A702349264B0E22180002F06E
:100E500003FA031E1CD1244B0022DA607B680022B7
:100E60005A607B6801229A607B680022DA60194B25
:100E700064220021180002F0BEF9184B00221A70FB
:100E8000A023180600230122002102F05FF81CE0D5
:100E90001049164B1722180002F0DEF9031E14D178
:100EA000114B0022DA607B6800225A607B680122C5
:100EB0009A607B680022DA60064B642200211800E9
:100EC00002F099F9054B00221A70C046BD4602B0E7
:100ED00080BDC0463C02001002030010F204001066
:100EE0000503001024030010A402001032030010B8
:100EF00090B587B000AF0C203B18184A12CA12C335
:100F000012881A803B00164A12CA12C3118819802F
:100F100092789A7013493B180A22180002F09CF943
:100F2000031E07D00F493B000B22180002F094F972
:100F3000031E0FD10B4B64220021180002F05BF955
:100F4000094B00221A70FA235B001800FFF7FAFA27
:100F5000FFF7B4FAC046BD4607B090BD00340000AC
:100F60000C3400003C020010F204001080B500AF09
:100F70001E4BDB68012B02D11C4B0022DA601C4B9C
:100F8000DB68012B05D11A4B0022DA60184B0122D5
:100F90009A60184BDB68012B17D1164B0022DA60E0
:100FA000144B1B69022B09DCFA235B001800FFF7C6
:100FB000C9FA104B1800FFF791FC06E0A0231806B1
:100FC00000230F22002101F0C1FF0B4BDB68012B36
:100FD00008D1094B00225A60074B01229A60064B48
:100FE0000022DA60C046BD4680BDC046EC0100105C
:100FF000740100108C010010A401001080B584B0B1
:1010000000AF78602E4B1B6A002B55D10023FB608C
:101010004FE02C4AFB68D3181B782F2B05D9294A9F
:10102000FB68D3181B78392B0BD9264AFB68D318D9
:101030001B780D2B05D0234AFB68D3181B780A2B8D
:101040003AD1204AFB68D3181B780D2B16D01D4AC5
:10105000FB68D3181B780A2B10D01A4AFB68D318E8
:101060001978174AFB68D3180A1C1A70FB680633F4
:101070001449FA688A181178134AD154FB68102B66
:1010800014D10F4B01221A62104B01221A610F4B2F
:101090000022DA607B6800225A607B6801229A6035
:1010A000084B64220021180002F0A5F8FB68013308
:1010B000FB60FB68102BACDDC046BD4604B080BDB4
:1010C000C00200103C020010D0000010A40200106A
:1010D00080B500AF094B5B68012B03D1074B1800AB
:1010E00000F010F8064B5B68012B03D1044B18008D
:1010F00000F04EF8C046BD4680BDC0460402001058
:101100002002001090B587B000AF78600C203B182B
:101110001A4A12CA12C31188198092789A70184913
:101120003B180B22180002F097F8031E22D1154B32
:101130000022DA607B6800225A607B6801229A6094
:101140007B680022DA607B689B69012B02D10E4B21
:1011500001221A607B689B69022B02D10A4B012293
:101160005A60074B64220021180002F044F8074B34
:1011700000221A70C046BD4607B090BD183400006A
:101180003C020010A4020010E8020010F20400105B
:10119000B0B586B000AF786008203B181D4A32CA4F
:1011A00032C312681A601C493B181022180002F062
:1011B00053F8031E29D1194B0022DA607B68002204
:1011C0005A607B6801229A607B680022DA607B6843
:1011D0009B69012B02D1124B01221A607B689B692B
:1011E000022B02D10E4B01225A600B4B64220021CC
:1011F000180002F000F80B4B00221A70A02318060A
:1012000000230922002101F0A1FEC046BD4606B020
:10121000B0BDC046243400003C020010A4020010FF
:10122000E8020010F204001080B500AF2149224B03
:101230000F22180002F010F8031E38D01D4B1B7D42
:101240002F2B34D91B4B1B7D392B30D8194B9B7D51
:101250006D2B03D0174B9B7D682B28D1174B012298
:101260001A70144B1B7D303BDAB2154B1A70114BC0
:101270005B7D2F2B12D90F4B5B7D392B0ED8104B7A
:101280001B781A1C9200D318DB18DAB2094B5B7D6D
:10129000D318DBB2303BDAB2094B1A70054B64222B
:1012A0000021180001F0A7FF064B00221A70C0466B
:1012B000BD4680BD3C020010C0020010F1040010C9
:1012C000F0040010F204001080B584B000AF3B1DA4
:1012D000180000F055FF3B1D01221A713B1D012231
:1012E0005A713B1D962292011A60012000F0D8F934
:1012F00002003B1D0748190000F0C2FE054B01210A
:10130000180001F047FE042001F008FEC046BD466B
:1013100004B080BD0080064080B500AF5B4B5C4AE6
:101320001A605C4B5C4A1A605C4B5D4A1A605D4B0C
:101330005D4A1A605D4B5E4A1A605E4B5E4A1A60F7
:101340005E4B5F4A1A605F4B5F4A1A605F4B604AB0
:101350001A60604B604A1A60604B614A1A604B4BDE
:1013600007225A614B4B07225A614C4B10225A619B
:101370004C4B0B225A614D4B0E225A614F4B0D22A2
:101380005A61504B39225A61504B0D225A61514BD0
:101390000A225A613D4B00221A613E4B00221A611B
:1013A0003E4B00221A613F4B00221A613F4B002244
:1013B0001A61404B00221A61404B00221A61414BD6
:1013C00000221A61414B00221A61424B00221A612D
:1013D0002E4B0022DA602F4B0022DA602F4B0022C6
:1013E000DA60304B0022DA60304B0022DA60314B99
:1013F0000022DA60314B0022DA60324B0022DA60E0
:10140000324B0022DA60334B0022DA601F4B00229D
:101410009A60204B00229A60204B00229A60214B58
:1014200000229A60214B00229A60224B00229A608F
:10143000224B00229A60234B00229A60234B002209
:101440009A60244B00229A60104B00225A60114B84
:1014500000225A60114B00225A60124B00225A603F
:10146000124B00225A60134B00225A60134B002289
:101470005A60144B00225A60144B00225A60154BDC
:1014800000225A60C046BD4680BDC046FC00001028
:1014900034340000140100103C3400002C01001012
:1014A0004434000044010010543400005C0100107A
:1014B0006034000074010010703400008C010010D2
:1014C00094340000A4010010A4340000BC010010FA
:1014D000E0340000EC010010F0340000D4010010F2
:1014E000FC34000080B500AF164B174A1A60174B4A
:1014F000174A1A60134B50225A61144B17225A6133
:10150000104B00221A61114B00221A610D4B002270
:10151000DA600E4B0022DA600A4B00229A600B4B15
:1015200000229A60074B00225A60084B00225A6042
:10153000044B01229A61054B02229A61C046BD46C6
:1015400080BDC04604020010800000102002001080
:10155000D000001080B500AF00F078F8054B9B6F0D
:10156000FF221340190001F0A0FE03001800BD4641
:1015700080BDC0460080044080B500AF00F0C8F8D0
:101580000100044B9B681F22134001334B4318009A
:10159000BD4680BD0080044080B500AF024B1B6893
:1015A0001800BD4680BDC0466803001080B500AF7E
:1015B000024B1B681800BD4680BDC0466403001086
:1015C00080B582B000AF786039607B68002B03D1B2
:1015D0000D4B180001F0DEF87B681B683A68D243B7
:1015E0001A407B681A607B681A683B681A437B68FC
:1015F0001A60C0467B681B683A681340FAD0C04640
:10160000BD4602B080BDC0460C35000080B500AFBD
:10161000014B1800BD4680BD001BB70080B582B0ED
:1016200000AF00237B60084A8E239B00D358202202
:10163000134003D1FFF7BAFF03007B607B681800FB
:10164000BD4602B080BDC0460080044080B582B077
:1016500000AF00237B60114B1B6F012B0AD004D31A
:10166000022B0CD0032B0FD013E0FFF7CFFF0300AA
:101670007B600EE000F04CF803007B6009E0FFF7B0
:101680008BFF03007B6004E0FFF776FF03007B60C5
:10169000C0467B681800BD4602B080BD0080044093
:1016A00080B584B000AF0200FB1D1A70FB1D1B78D3
:1016B000072B22D89A00154BD3181B689F46FFF7BB
:1016C00049FF0300FB601BE0FFF7C0FF0300FB6066
:1016D00016E0FFF79BFF0300FB6011E0FFF766FFDA
:1016E0000300FB600CE0FFF757FF0300FB6007E01F
:1016F000FFF742FF0300FB6002E00023FB60C046EF
:10170000FB681800BD4604B080BDC046E03500004F
:1017100080B582B000AF00237B600F4B1B6C0322AF
:101720001340012B08D002D3032B0AD00EE0FFF7A1
:101730006DFF03007B6009E0FFF770FF03007B6033
:1017400004E0FFF733FF03007B60C0467B681800AE
:10175000BD4602B080BDC0460080044080B584B064
:1017600000AF78600023FB607B680D4A934202D98A
:101770000023FB600FE07B680A4A934202D90123F1
:10178000FB6008E07B68084A934202D90223FB60B1
:1017900001E00323FB60FB681800BD4604B080BD78
:1017A000802FA604C0175302E08B290180B586B0B4
:1017B00000AF78607B681B68374A934203D9374B88
:1017C000180000F0E7FF00237B6100233B6100234A
:1017D000FB60334A8E239B00D358314980221A4341
:1017E0008E239B00CA502E4B1B6C032293437A68B6
:1017F0001279134319002A4B1A6C294B0A431A64B5
:10180000284B03211800FFF7DBFEFFF781FF0300E1
:10181000FB60FB68002B03D1234B180000F0BAFFDC
:101820007B681B68F968180001F03FFD03007B61CD
:101830007B681B681800FFF791FF03003B61184BA2
:101840009B687F2293431A007B69013B1F210B4059
:101850001A4311003B695B0160221A40104B0A4396
:101860009A600F4A8E239B00D3580D4980229343E0
:101870001A008E239B00CA50C046094BDB68012228
:101880001340FAD0FB687A695A43084B1A60C04685
:10189000BD4606B080BDC04600E1F505303500000C
:1018A0000080044044800440803500006C03001038
:1018B00080B584B000AF0200BB1D1A80BB1D1B8821
:1018C000FF221340FB60BB1D1B881B0A9BB21A0042
:1018D000FF231340BB600F4B1B6F03221340BA68FA
:1018E0009A4212D0FB68002B0FD10A4B1B6F0322C8
:1018F00093431900BB6803221A40064B0A431A6738
:10190000054B01211800FFF75BFEC046BD4604B041
:1019100080BDC046008004407480044080B584B01F
:1019200000AF78600023FB6006E00C4A7B689342BE
:1019300006D0FB680133FB60FB68002BF5D000E0AC
:10194000C046FB68002B03D0054B180000F022FFB7
:10195000FB681800BD4604B080BDC0460080005042
:10196000E037000090B587B000AF78607B68180062
:1019700001F029FB03003B6100237B6100237B61B5
:1019800099E07A693B69D2184F4B9200D358FB60BB
:10199000FB68002B00D18AE0FB681B7B1A001F2329
:1019A0001340BB60FB689B6858331A00FB681B7BC5
:1019B0005B09DBB29B00D3181A68BB68DA401300DE
:1019C000012213401AD0FB689B6858331A00FB6849
:1019D0001B7B5B09DBB29B00D3180121BA689140E5
:1019E0000A001A60FB681B68002B07D0FB681C68A4
:1019F000FB685968F86800230122A047FB689B68D0
:101A000060331A00FB681B7B5B09DBB29B00D318B9
:101A10001A68BB68DA401300012213401AD0FB6831
:101A20009B6860331A00FB681B7B5B09DBB29B0081
:101A3000D3180121BA6891400A001A60FB681B683C
:101A4000002B07D0FB681C68FB685968F868012305
:101A50000122A047FB689B6840331A00FB681B7B90
:101A60005B09DBB29B00D3181A68BB68DA4013002D
:101A7000012213401CD0FB689B6840331A00FB68AE
:101A80001B7B5B09DBB29B00D3180121BA68914034
:101A90000A001A60FB681B68002B09D0FB681C68F1
:101AA000FB685968F86802230022A04700E0C0469E
:101AB0007B6901337B617B69182B00D861E7C046E5
:101AC000BD4607B090BDC0467003001080B500AFA2
:101AD000034B1800FFF746FFC046BD4680BDC04619
:101AE0000080005080B582B000AF0200FB1D1A706C
:101AF000074A8023D358FA1D1278012191400A0029
:101B00000349134380228B50C046BD4602B080BDBE
:101B10000080044080B582B000AF786039603B68D7
:101B2000002B03D0054B180000F034FE06231800EC
:101B3000FFF7D8FFC046BD4602B080BD703E000032
:101B400080B582B000AF786039607B681B68012285
:101B5000134006D0084B1B6839687A681000984714
:101B600005E0064B1B6839687A6810009847C04644
:101B7000BD4602B080BDC046E4030010E80300107B
:101B800080B500AF044B1B68044A19001000FFF732
:101B9000D7FFC046BD4680BDD403001000000540FD
:101BA00080B500AF044B5B68044A19001000FFF7D2
:101BB000C7FFC046BD4680BDD403001000400540AD
:101BC00080B500AF044B9B68044A19001000FFF772
:101BD000B7FFC046BD4680BDD403001000000740DB
:101BE00080B586B000AF7860094B9B6A7B617B69EA
:101BF0001B0E3B613B69002B05D07B68DB6AFB60F9
:101C00007B68FA68DA623B691800BD4606B080BDA1
:101C1000004000A080B582B000AF0F4B1800FFF766
:101C2000DFFF03007B600D4B1B68002B05D00B4BC7
:101C30001B687A68110000209847074B1B68012237
:101C4000134004D1044B0021180001F038FAC046BB
:101C5000BD4602B080BDC046004000A0EC030010AD
:101C600080B582B000AF0F4B1800FFF7B9FF03003B
:101C70007B600D4B5B68002B05D00B4B5B687A6873
:101C8000110001209847074B1B680222134004D122
:101C9000044B0121180001F012FAC046BD4602B003
:101CA00080BDC046004000A0EC03001080B582B0AB
:101CB00000AF0F4B1800FFF793FF03007B600D4B45
:101CC0009B68002B05D00B4B9B687A6811000220A3
:101CD0009847074B1B680422134004D1044B022190
:101CE000180001F0ECF9C046BD4602B080BDC04608
:101CF000004000A0EC03001080B582B000AF0F4B95
:101D00001800FFF76DFF03007B600D4BDB68002BB5
:101D100005D00B4BDB687A68110003209847074B0E
:101D20001B680822134004D1044B0321180001F062
:101D3000C6F9C046BD4602B080BDC046004000A006
:101D4000EC03001080B582B000AF0F4B1800FFF716
:101D500047FF03007B600D4B1B69002B05D00B4B2D
:101D60001B697A68110004209847074B1B681022F2
:101D7000134004D1044B0421180001F0A0F9C0461F
:101D8000BD4602B080BDC046004000A0EC0300107C
:101D900080B584B000AF0200FB1D1A70FB1D1B78DC
:101DA000FB600122FB689A401300BB60FB681F2B9D
:101DB00003D9074B180000F0EDFC064B5A68BB68CE
:101DC000D943044B0A405A60C046BD4604B080BDAA
:101DD000B03E00000080044080B584B000AF020037
:101DE000FB1D1A70FB1D1B78FB600122FB689A40EB
:101DF0001300BB60FB681F2B03D9074B180000F0D2
:101E0000C9FC064B5968054BBA680A435A60C0467C
:101E1000BD4604B080BDC046DC3E000000800440EA
:101E200080B500AF034B1B68034A10009847C046BB
:101E3000BD4680BD0C0400100040005080B582B04B
:101E400000AF786039607B68180001F05DF9031E0F
:101E500006D0084B1B6839687A681000984705E07F
:101E6000054B1B6839687A6810009847C046BD4624
:101E700002B080BD180400101C04001080B500AF33
:101E8000084B1B68002B03D1074B180000F082FCA5
:101E9000044B1B68054A19001000FFF7CFFFC0462E
:101EA000BD4680BD10040010B44300000080054012
:101EB00080B500AF084B5B68002B03D1074B1800BF
:101EC00000F068FC044B5B68054A19001000FFF73E
:101ED000B5FFC046BD4680BD10040010E0430000C1
:101EE00000C0054080B586B000AF786008001100E2
:101EF000FB1C021C1A70BB1C0A1C1A707B68002B8E
:101F000003D11D4B180000F045FCFB1C1B782F2B48
:101F100003D91A4B180000F03DFC00237B6100231D
:101F20003B61FB1C1B789B08DBB27B61FB1C1B78B5
:101F300003221340DB003B617B687A699200D3582F
:101F4000FB60FF223B699A401300DB431A00FB68E9
:101F50001340FB60BB1C1A783B699A4013001A00BF
:101F6000FB681343FB607B687A699200F968D15083
:101F7000C046BD4606B080BD0C440000344400009D
:101F800080B584B000AFF860B960FB1D1A70FB68C3
:101F9000002B03D11A4B180000F0FCFBBB68002B90
:101FA00007D1BB68174A934203D9174B180000F0BA
:101FB000F1FBFB1D1B78002B0FD0BB68002B1ADB3D
:101FC000FA68E0235B00D358BA68D2431A40110084
:101FD000FA68E0235B00D1500DE0BB68002B0ADB00
:101FE000FA68E0235B00D258BB681A431100FA6814
:101FF000E0235B00D150C046BD4604B080BDC04662
:102000006C440000400000809444000080B582B021
:1020100000AF0200FB1D1A70074A8023D358FA1D37
:102020001278012191400A000349134380228B500A
:10203000C046BD4602B080BD0080044080B584B07B
:1020400000AF78600023FB600BE00B4BFA68920056
:10205000D2587B689A4201D1FB6809E0FB680133E2
:10206000FB60FB68022BF0DD044B180000F092FBD4
:102070001800BD4604B080BDDC440000F044000000
:1020800080B586B000AFF860B9607A6000237B61EC
:10209000FB68002B05D0BB68002B02D07B68002BAF
:1020A00003D1344B180000F075FBFB681800FFF7F4
:1020B000C5FF03003B61304A3B69D3181B78180009
:1020C000FFF7A4FF2D4A3B69D3181B78180001F0D5
:1020D00007F8BB689B791B0130221A40BB68DB798B
:1020E0009B0140210B401A43BB689B7A5B08DBB223
:1020F000D90280231B010B401A43BB681B7A9B004B
:102100000C210B401A43BB685B7ADB031B041B0CDE
:102110001A43BB689B7A99038023DB010B4013436E
:1021200001221A43FB681A60BB681B68002B08D0A9
:10213000BB6819687A68FB68180000F04BF8030068
:102140007B617B69002B01D07B690EE0BB685A790B
:10215000FB681100180000F0E6FFBB681A79FB6805
:102160001100180001F002F800231800BD4606B067
:1021700080BDC0464C460000E8440000EC4400002E
:1021800080B582B000AF78607B68002B03D1104B24
:10219000180000F0FFFA7B68962292011A607B68B3
:1021A00000229A717B680022DA717B6801221A7220
:1021B0007B6800225A727B6800221A717B680022B9
:1021C0005A717B6800229A72C046BD4602B080BD3B
:1021D000D446000080B58CB000AFF860B9607A607A
:1021E000FB68002B05D0BB68002B02D07B68002B5E
:1021F00003D1384B180000F0CDFA01235B42FB629B
:102200000F23BB6201235B427B620023FB6100233F
:10221000BB6100233B6200237B61FB681A6880235B
:102220001B0113400AD0B968786801F03EF803003A
:10223000BB61BB695A1EFB681A6246E0BB6A3B621F
:1022400034E03B6A0133BA6853431900786801F0FF
:102250002CF80300013BBB61BB691F4A934221D8A4
:102260003B6A0133BA69013253431900786801F0BF
:102270001CF803007B61BA687B699A4203D27A69D1
:10228000BB68D31A02E0BA687B69D31AFB61FA69AA
:10229000FB6A9A4207D2FB69FB623B6ABB62BB697D
:1022A0007B6200E0C0463B6A013B3B623B6A072B16
:1022B000C7D87B6A084A934201D9084B06E0FB68FD
:1022C000BA6A9A62FB687A6A1A6200231800BD46ED
:1022D0000CB080BD00470000FFFF00004F1600005B
:1022E00080B584B000AFF860B9607A60FB68002BFD
:1022F00002D0BB68002B14D1104B180000F04AFA32
:10230000C046FB689B6804221340FAD0BB681B7868
:102310001A00FB68DA61BB680133BB607B68013B74
:102320007B607B68002BEBD1C046FB689B68082272
:102330001340FAD0C046BD4604B080BD5C470000E3
:1023400080B586B000AFF860B9607A60FB68002B9A
:1023500002D0BB68002B50D12C4B180000F01AFAA9
:10236000C046FB689B6801221340FAD0FB685B699A
:10237000DAB2BB681A70BB680133BB60FB689B684C
:102380007B617A6980239B01134008D0FB689B68BE
:10239000802292011A43FB689A601D4B31E07A69F2
:1023A0008023DB01134008D0FB689B688022D201A8
:1023B0001A43FB689A60174B23E07A6980231B025B
:1023C000134008D0FB689B68802212021A43FB6806
:1023D0009A60114B15E0FB689A6880235B001340FC
:1023E00008D0FB689B68802252001A43FB689A6001
:1023F0000A4B06E07B68013B7B607B68002BAFD11A
:1024000000231800BD4606B080BDC046A0470000AE
:102410004C1600004D1600004B1600004E16000032
:1024200080B500AF044B1A68044B1B6804481900C0
:102430009047C046BD4680BD2C040010200400100B
:102440000040064080B500AF044B1A68044B5B683F
:10245000044819009047C046BD4680BD2C040010BA
:10246000200400100080064080B500AF044B1A68BD
:10247000044B9B68044819009047C046BD4680BD88
:102480002C0400102004001000C0064080B582B06B
:1024900000AF0200FB1D1A70074A8023D358FA1DB3
:1024A0001278012191400A000349134380228B5086
:1024B000C046BD4602B080BD0080044080B582B0F9
:1024C00000AF02003960BB1D1A80BB1D1B881B05B5
:1024D0001B0D054A944663443A68FF210A401A607E
:1024E000C046BD4602B080BD0080044080B582B0C9
:1024F00000AF0E20FFF7CAFF01219420FFF7DEFF97
:10250000032000F0EDFDFFF7A1F8020096239901EA
:10251000094813000822FDF7F3FE03007B607B6887
:10252000002B03D0054B180000F034F97B6818002D
:10253000BD4602B080BDC04600400640C04A000013
:1025400080B582B000AF0200BB1D1A80BB1D1A8887
:10255000BB1D1B881B0A9BB21900FF230B400549BA
:102560008C466344FF210A401A60C046BD4602B053
:1025700080BDC0460080044080B582B000AF786066
:102580007B68002B03D1094B180000F003F9084BBE
:102590009B6FFF22934319007B68FF221A40044B74
:1025A0000A439A67C046BD4602B080BDF04A0000AB
:1025B0000080044080B582B000AF7860074A8E2367
:1025C0009B00D3587A68D24304491A408E239B005B
:1025D000CA50C046BD4602B080BDC046008004401F
:1025E00080B582B000AF0120FFF7E4FF0220FFF7C3
:1025F000E1FF8023DB011800FFF7A2FF3B00002270
:102600001A713B000B4A1A603B001800FFF7CEF826
:102610000020FFF74DF9E0231B021800FFF790FFA1
:102620000120FFF7A9FF044B024A1A60C046BD46CD
:1026300002B080BD001BB700E800001080B582B07A
:1026400000AF0200FB1D1A70074A8023D358FA1D01
:102650001278012191400A000349134380228B50D4
:10266000C046BD4602B080BD0080044080B582B047
:1026700000AF0200FB1D1A70084A8023D358FA1DD0
:102680001278012191400A00D2430449134080226C
:102690008B50C046BD4602B080BDC046008004409D
:1026A00080B582B000AF1220FFF7C8FF0720FFF708
:1026B000C5FF2B4B042200211800FFF713FC284B09
:1026C000002201211800FFF70DFC254B11220521E6
:1026D0001800FFF707FC224B172206211800FFF70E
:1026E00001FC80235B001E4801221900FFF748FC13
:1026F0003B1D01221A703B1D00225A703B00194AF3
:1027000012881A80A0231B0600211800FFF702FA86
:102710003A1DA023180613000D22002100F075FCBD
:102720003A00A023180613000122002100F06DFCDE
:102730003A00A023180613000F22002100F065FCC8
:102740003A00A023180613000922002100F05DFCC6
:102750000720FFF78BFFC046BD4602B080BDC046D4
:1027600000C000401C4B000080B500AF054B064A7E
:102770009A60064B064A1A6000F02DFDC046BD4621
:1027800080BDC04600ED00E000000000E800001041
:10279000001BB70070B505000E4C0F48210000F07B
:1027A00044FD2100280000F040FD0C4A111DCB6FB4
:1027B000013BCB67002B07DB936F591C91670A2203
:1027C0001A7000F013FD70BD21000A2000F028F8F7
:1027D000F7E7C046A8040010244B000030040010A6
:1027E000202310B50400C2689A43E2608369826ABC
:1027F00093420CD000F0BAF8E368074A1A4010235D
:102800001343E360A36AA3612369E3622360E26880
:10281000024B1340E36010BDEFCFFFFFBFBFFFFFD0
:10282000F8B5CA684E4B050013400C00CB60930608
:1028300002D50800FFF7D4FFA268E668531C0FDA40
:10284000B3050DD402235B429B1AA36090235B0265
:102850001E432368E6605A1C22601D70E8B20AE03D
:10286000404A3240022A07D00023A36080331E432F
:10287000E66001204042F8BD80213B4B0902334015
:102880008B420AD10021200000F048F9E3689B0642
:1028900002D52000FFF7A4FFE6689023F0225B0238
:1028A00033431201E360164210D1606900F068FD05
:1028B000002820D073051ED5230024332361236014
:1028C0000123E36192235B023343E360902109011A
:1028D000226826690B4224D0E16A8A4200D911009D
:1028E000891B17D1731CE3622360E3695A1EA2603F
:1028F00023633570B2E780277F00380000F0FEF8D0
:102900009423E2685B0233431A4320612060E7614D
:10291000E260DBE72200300000F056F80028E1D04A
:10292000A7E7511CE8B221601070E26A21688A4270
:1029300000D91100E269891B22635B0504D40A28CF
:1029400002D08A4200DD89E70023E6622660A360A8
:102950002200300000F038F8002800D17EE788E738
:10296000FFFFF7FF8A10000010A0000070B5040000
:1029700005690168C26A124BC0680340E3608223A4
:102980000340022B02D00120404270BD80235B0235
:102990001840FAD0914200D211008D4208D1002097
:1029A000E268084BE56213402560A060E360ECE755
:1029B000491B2200280000F007F80028EFD0E2E7CA
:1029C000FFFFF7FFFFFFFEFFF7B5D56801900E0090
:1029D00014005769EB0205D5102338001D4300F0A1
:1029E000CCFCA061104B1D420FD0A169380000F053
:1029F000CDFC002806DA80230120E2684042134320
:102A0000E3600FE0094B1D40E5603200019938009A
:102A100000F0C2FC43005B08F61AA3699E19A66188
:102A20000028E8D1FEBDC04610000200EFFFFDFF08
:102A3000F7B50027304EC51C3468AD08B84214D035
:102A40002900EB1C9C460A310191002C0FD10C305F
:102A500000F08EF9431C08D080239B05036045607D
:102A60008460002F46D130601EE00020FEBD802231
:102A70002368520593423AD1A7686368002F0BD0B0
:102A800080213A6849058A4206D17A6803339B1847
:102A90006360BB68A360EFE7AB4207DB9C4505DBE7
:102AA00080239B05236020000C30DFE7019A9342CE
:102AB00010D9802220008021920522600C30AA00CB
:102AC0005B1B82184905033B6560A260116053607F
:102AD0009760CBE7002F0AD19B00C01A00F048F99D
:102AE000431CC2D080239B0523606560DBE7270081
:102AF000A468AAE7B860D7E7E804001010B5FFF7AC
:102B000097FF041E05D11722034900F045FC00F091
:102B10006DFB200010BDC046394B0000F7B5394BA6
:102B2000C56804000E0000921D4201D1022741E059
:102B300043691800019300F023FC071EF6D1009BA7
:102B4000012B28D0022B2BD0002BEFD1002EEDDB58
:102B5000AB0404D52368E26A9A4200D2E362A0691A
:102B6000B0420EDCE26A2368934200D2130022696D
:102B700019180092891AB14203DB216B4218B24244
:102B80002EDC20231D430023A662A36063601E4B3E
:102B90001D40E5600EE0200000F038F83618D5E75B
:102BA000019800F0EAFBE268002805DA802301279B
:102BB0001343E3603800FEBDE16A2368994200D9FF
:102BC0000B00A1695B1821695B1A920603D5A26A02
:102BD000934200DA1300834200DA0300F618B5E7E7
:102BE000361AAA0701D5711AA160EA0703D5009A1F
:102BF0009B1AF31A6360009B9E19202326609D4355
:102C0000C5E7C04603001000BFCFF7FFC2689307B7
:102C100005D1212201200E4B40421A60704720232B
:102C2000134012030AD5002B02D0806A0138F5E761
:102C30000368826900699B18181AF7E7002B01D016
:102C4000806AEBE70368826900699B18181AE5E758
:102C5000EC04001037B5184C18492200002000F091
:102C6000A7F8802380225B00D2000021200000F022
:102C70002FF8134C134D22002900012000F098F882
:102C8000802380225B00D2000021200000F020F889
:102C90000D4B1B680193022B0DDD0C4C290022000B
:102CA000022000F085F8802380225B00D200002102
:102CB000200000F00DF837BD30040010514B00002B
:102CC0006C040010534B0000204B0000A8040010BF
:102CD000F0B5C5680124AE0710D08026B600B24218
:102CE00007D08026F600B2420AD080267600B24293
:102CF00004D1084F5E1E0124BE4204D92000F0BD5D
:102D0000010023002431154301610160C361C560E6
:102D10000024F3E7FEFFFF00032110B5421C084228
:102D200018D1114C0368114959189943214219D0FF
:102D3000DCB2411C002C0BD0FF242402811C234256
:102D400006D0FF2109040B40591E8B41C318D91C22
:102D5000881A04E0431C0078002801D1981A10BD9D
:102D60001800DCE70430DDE780808080FFFEFEFE97
:102D700070B50C4D2B68002B01D10B4B2B6003233E
:102D8000C41C2E689C433419200000F09BF80028D6
:102D900002D12C60300070BD0C220126034B76421C
:102DA0001A60F7E7E4040010F4040010EC040010CB
:102DB000F7B50D0001901000140000F033F82B78E7
:102DC000722B1FD0772B04D0612B26D10823144AF5
:102DD00001E0042302220220691C03278446042602
:102DE000012508782B2810D0622813D0E260019AC0
:102DF00062611B0704D5022200212000FFF78EFE2E
:102E00002000FEBD00230122E5E760463A4303436C
:102E10000131E6E732432B43FAE70024F0E7C046EE
:102E200002800000F0B5C46889B00500A30722D075
:102E3000230718D44769066900F022F8380000F02B
:102E400099FA230502D5300000F0D9F90B4BA40DF7
:102E5000A4059C4207D12022296A684600F099FA0D
:102E6000684600F016FA3C220021280000F0C3F961
:102E7000002009B0F0BD01204042FAE7000080AD1B
:102E800073B5002813D000F027F80500280076BDA0
:102E900030006043094BC01800F01EF8002801D034
:102EA00001256D420134019BA342F1DCEEE7044BA6
:102EB00004001B68050001933C26F4E73004001071
:102EC000204B0000034B0200181E02D000209A4243
:102ED00040417047F406001070B50326C368040033
:102EE0001E4011D09B0611D5856AFFF779FCE26878
:102EF000094B20001340E360FFF738FD0022060075
:102F000029002000FFF70AFE300070BD03688269C7
:102F10009D180369ED1AEAE7FFCFFFFF80B582B085
:102F200000AF0200FB1D1A70FB1D1B785BB28033E3
:102F300001D1012306E0FB1D1B785BB21800FDF7F1
:102F400035FA00231800BD4602B080BD80B584B0BC
:102F500000AFF860B9607A601A00FB1C1A70F9685B
:102F6000BA681300DB009B1A9B009B18CA187B6889
:102F7000D318FA1C12781A70C046BD4604B080BD42
:102F800080B582B000AF78607B689B681800BD4652
:102F900002B080BD80B582B000AF786039603B6818
:102FA000DB05DA0D7B68DA60C046BD4602B080BD45
:102FB00080B582B000AF78607B685B69DBB21800D7
:102FC000BD4602B080BD80B586B000AF78600023FA
:102FD0007B610023FB6000233B617B681800FEF7E8
:102FE0009DFC0300FB6000233B6105E07B69193316
:102FF0007B613B6901333B613A69FB689A42F5D3D7
:103000007B691800BD4606B080BD80B584B000AFB6
:10301000F860B9607A603B603B681B78002B17D181
:10302000FB68BA68802109018C4662449200D3583B
:1030300001217A6891400A00D2431A401100FB68CE
:10304000BA6880200001844662449200D15032E088
:103050003B685B78002B0CD101227B689A40110001
:10306000FB68BA688A200001844662449200D1500D
:103070000BE001227B689A401100FB68BA68882047
:103080000001844662449200D150FB68BA688021F6
:1030900009018C4662449200D25801217B68994014
:1030A0000B001A431100FB68BA68802000018446B7
:1030B00062449200D150C046BD4604B080BD80B588
:1030C00082B000AF78600A00FB1C1A70FB1C1B78F2
:1030D00001229A407B685A62C046BD4602B080BD5C
:1030E00080B582B000AF0200FB1D1A70FB1D1B787B
:1030F0001800FEF74DFEFB1D1B781800FEF76CFE56
:10310000C046BD4602B080BD80B582B000AF7860D9
:103110007B681B68042213405A1E9341DBB21800DF
:10312000BD4602B080BD80B582B000AF78600A00B5
:10313000FB1C1A70FB1C1B78002B0DD07B681B68D6
:1031400001221A437B681A607B685B6840229343C4
:103150001A007B685A6005E07B685B6840221A436E
:103160007B685A60C046BD4602B080BD80B582B063
:1031700000AF78600A00FB1C1A70FB1C1B78002B48
:1031800006D07B681B6801221A437B681A600BE03B
:103190007B685B684022134006D07B681B68012275
:1031A00093431A007B681A60C046BD4602B080BDDA
:1031B00080B500AFFFF714FAC046BD4680BD80B5AC
:1031C00000AFC046BD4680BD80B500AFFFF768FACE
:1031D000C046BD4680BD80B500AFC046BD4680BD7F
:1031E00010B5FFF737FDFDF707FA10BDFEE710B584
:1031F00000F095F810BD10B500F0A7F810BD10B59F
:10320000002811D080210C38490501608268002A0D
:103210000AD013688B4207D14368546803331B19E3
:10322000436093688360F1E710BD70B50D00040042
:10323000207800280FD0AB68013BAB60002B05DB8A
:103240002B685A1C2A6018700134F1E72900FFF737
:10325000E7FA431CF8D170BD03000B4330B59B0760
:1032600007D00024A2420BD100200FE0043004312B
:10327000043A032AF5D903680C68A342F6D0F0E7B4
:10328000035D651C0C5DA34201D0181B30BD2C00F2
:10329000E8E710B50400FFF73FFD0100200000F053
:1032A00072F810BD03000B4321D4002931D0012254
:1032B000D207030901E0090112099942FBD9430829
:1032C00001E0490052089942FBD900E04908401A40
:1032D00007D35241FAD301461046704749084018B7
:1032E000F7D29218FAD34018014610467047CB0F18
:1032F00000D04942021000D54042534008B5FFF7C4
:10330000D4FF0CBC521000D34042002A00D54942E1
:103310001847F446002000F001F8604770478446E3
:10332000830708D18B0706D1131F04D304C904C037
:10333000043BFBD21A1D524205D0891A801A8B5CBD
:1033400083540132FBD1604670478446043A09D366
:10335000830707D109060B0A19430B0C1943043ADA
:1033600002C0FCD2043203D001700130013AFBD11B
:10337000604670470120404270470120404270473C
:1033800001204042704701204042704701204042E6
:10339000704701204042704710007047415445304B
:1033A0000D000D0A4F4B0D0A0D0A4F4B0D0A000080
:1033B000300D0A00340D0A002B4350494E3A20527A
:1033C000454144590D0A300D0A0000000D0A5348CA
:1033D0005554204F4B0D0A000D0A434F4E4E4543A6
:1033E00054204F4B0D0A0000340D0A0D0A2B504497
:1033F000503A2044454143540D0A00000D0A3E2036
:103400000D0A434C4F5345440D0A0000000D0A437A
:103410004C4F5345440D0A000D0A53454E44204F6E
:103420004B0D0A000D0A53454E44204F4B0D0A9098
:1034300003000100415445300D0A0000415456304C
:103440000D0A000041542B4950523D313135323084
:10345000300D0A0041542B4350494E3F0D0A0000E5
:1034600041542B4346554E3D312C310D0A0000008E
:1034700041542B435354543D22554E494D324D2E09
:103480004E4A4D324D41504E222C22222C22220DEA
:103490000A00000041542B434950534855540D0A2B
:1034A0000000000041542B43495053544152543DB5
:1034B00022544350222C226A696E676A696E672D16
:1034C0006D7174742E66656E676C696E666C2E63C2
:1034D0006F6D222C2231383833220D0A0000000093
:1034E00041542B43495053454E440D0A00000000FF
:1034F00041542B4347534E0D0A00000041542B43C7
:1035000049505354415455530D0A00FF2E2E2F6439
:103510007269766572732F66736C5F636C6F636B31
:103520002E633A3833203A20626173650000000050
:103530002E2E2F647269766572732F66736C5F63CB
:103540006C6F636B2E633A323532203A20636F6EB4
:103550006669672D3E746172676574467265712095
:103560003C3D20535953504C4C5F4D41585F4F5593
:10357000545055545F465245515F485A0000000070
:103580002E2E2F647269766572732F66736C5F637B
:103590006C6F636B2E633A323635203A20696E7059
:1035A00075744672657120213D2030550000000081
:1035B0002E2E2F647269766572732F66736C5F634B
:1035C0006C6F636B2E633A333237203A2077647422
:1035D0004F7363446976203E3D20325500FFFFFF64
:1035E000BE160000C8160000FA160000D216000031
:1035F000DC160000F0160000FA160000E6160000C7
:103600002E2E2F647269766572732F66736C5F64F9
:103610006D612E683A323638203A206368616E6EEA
:10362000656C203C2046534C5F46454154555245FD
:103630005F444D415F4E554D4245525F4F465F439B
:1036400048414E4E454C536E286261736529000017
:103650002E2E2F647269766572732F66736C5F64A9
:103660006D612E683A323830203A206368616E6EA0
:10367000656C203C2046534C5F46454154555245AD
:103680005F444D415F4E554D4245525F4F465F434B
:1036900048414E4E454C536E2862617365290000C7
:1036A0002E2E2F647269766572732F66736C5F6459
:1036B0006D612E683A333034203A206368616E6E53
:1036C000656C203C2046534C5F464541545552455D
:1036D0005F444D415F4E554D4245525F4F465F43FB
:1036E00048414E4E454C536E286261736529000077
:1036F0002E2E2F647269766572732F66736C5F6409
:103700006D612E683A333136203A206368616E6EFF
:10371000656C203C2046534C5F464541545552450C
:103720005F444D415F4E554D4245525F4F465F43AA
:1037300048414E4E454C536E286261736529000026
:103740002E2E2F647269766572732F66736C5F64B8
:103750006D612E683A333238203A206368616E6EAC
:10376000656C203C2046534C5F46454154555245BC
:103770005F444D415F4E554D4245525F4F465F435A
:1037800048414E4E454C536E2862617365290000D6
:103790002E2E2F647269766572732F66736C5F6468
:1037A0006D612E683A333431203A206368616E6E61
:1037B000656C203C2046534C5F464541545552456C
:1037C0005F444D415F4E554D4245525F4F465F430A
:1037D00048414E4E454C536E286261736529000086
:1037E0002E2E2F647269766572732F66736C5F6418
:1037F0006D612E633A313130203A20696E73746105
:103800006E6365203C2041525241595F53495A45ED
:1038100028735F646D614261736573290000000065
:103820002E2E2F647269766572732F66736C5F64D7
:103830006D612E633A313534203A20286368616E19
:103840006E656C203C2046534C5F464541545552B2
:10385000455F444D415F4E554D4245525F4F465F77
:103860004348414E4E454C536E2862617365292989
:1038700020262620284E554C4C20213D207472696C
:1038800067676572290000002E2E2F6472697665C5
:1038900072732F66736C5F646D612E633A313733D8
:1038A000203A206368616E6E656C203C2046534C64
:1038B0005F464541545552455F444D415F4E554D1D
:1038C0004245525F4F465F4348414E4E454C536E12
:1038D00028626173652900002E2E2F647269766557
:1038E00072732F66736C5F646D612E633A3230378A
:1038F000203A207866657263666720213D204E5528
:103900004C4C00002E2E2F647269766572732F6600
:10391000736C5F646D612E633A323039203A20282F
:10392000786665726366672D3E737263496E6320C5
:103930003D3D203029207C7C2028786665726366B6
:10394000672D3E737263496E63203D3D203129200F
:103950007C7C2028786665726366672D3E7372638F
:10396000496E63203D3D203229207C7C20287866EA
:1039700065726366672D3E737263496E63203D3DD9
:10398000203429002E2E2F647269766572732F669B
:10399000736C5F646D612E633A323131203A2028B6
:1039A000786665726366672D3E647374496E632042
:1039B0003D3D203029207C7C202878666572636636
:1039C000672D3E647374496E63203D3D203129208C
:1039D0007C7C2028786665726366672D3E6473740C
:1039E000496E63203D3D203229207C7C202878666A
:1039F00065726366672D3E647374496E63203D3D56
:103A0000203429002E2E2F647269766572732F661A
:103A1000736C5F646D612E633A323133203A202833
:103A2000786665726366672D3E627974655769646E
:103A30007468203D3D203129207C7C2028786665F3
:103A4000726366672D3E6279746557696474682095
:103A50003D3D203229207C7C202878666572636693
:103A6000672D3E627974655769647468203D3D2016
:103A7000342900002E2E2F647269766572732F66CA
:103A8000736C5F646D612E633A323135203A207871
:103A90006665726366672D3E7472616E73666572E9
:103AA000436F756E74203C3D20444D415F4D41583D
:103AB0005F5452414E534645525F434F554E54005A
:103AC0002E2E2F647269766572732F66736C5F6435
:103AD0006D612E633A323530203A20284E554C4CD9
:103AE00020213D206465736329202626202830206C
:103AF0003D3D202875696E7433325F7429646573A7
:103B00006320252031362920262620284E554C4C6E
:103B100020213D20786665726366672900000000F9
:103B20002E2E2F647269766572732F66736C5F64D4
:103B30006D612E633A323531203A20284E554C4C77
:103B400020213D207372634164647229202626205F
:103B50002830203D3D202875696E7433325F74290A
:103B600073726341646472202520786665726366AF
:103B7000672D3E6279746557696474682900000096
:103B80002E2E2F647269766572732F66736C5F6474
:103B90006D612E633A323532203A20284E554C4C16
:103BA00020213D20647374416464722920262620FC
:103BB0002830203D3D202875696E7433325F7429AA
:103BC000647374416464722025207866657263664C
:103BD000672D3E6279746557696474682900000036
:103BE0002E2E2F647269766572732F66736C5F6414
:103BF0006D612E633A323533203A20284E554C4CB5
:103C0000203D3D206E6578744465736329207C7C7B
:103C1000202830203D3D202875696E7433325F7452
:103C2000296E657874446573632025203136290038
:103C30002E2E2F647269766572732F66736C5F64C3
:103C40006D612E633A323636203A204E554C4C2068
:103C5000213D2068616E646C650000002E2E2F648B
:103C60007269766572732F66736C5F646D612E6323
:103C70003A323738203A20284E554C4C20213D20EE
:103C800068616E646C652920262620286368616E51
:103C90006E656C203C2046534C5F4645415455525E
:103CA000455F444D415F4E554D4245525F4F465F23
:103CB0004348414E4E454C536E2862617365292935
:103CC000000000002E2E2F647269766572732F66D5
:103CD000736C5F646D612E633A323936203A206826
:103CE000616E646C6520213D204E554C4C000000F7
:103CF0002E2E2F647269766572732F66736C5F6403
:103D00006D612E633A333131203A20284E554C4CA8
:103D100020213D20636F6E666967292026262028B2
:103D20004E554C4C20213D207372634164647229CE
:103D300020262620284E554C4C20213D20647374AB
:103D400041646472290000002E2E2F64726976652A
:103D500072732F66736C5F646D612E633A33313218
:103D6000203A2028627974655769647468203D3D63
:103D7000203129207C7C202862797465576964741D
:103D800068203D3D203229207C7C202862797465A2
:103D90005769647468203D3D203429002E2E2F641D
:103DA0007269766572732F66736C5F646D612E63E2
:103DB0003A333136203A2028786665725F636F7532
:103DC0006E74203C3D20444D415F4D41585F54523C
:103DD000414E534645525F434F554E5429202626A7
:103DE000202830203D3D207472616E7366657242FA
:103DF00079746573202520627974655769647468E5
:103E0000290000002E2E2F647269766572732F666A
:103E1000736C5F646D612E633A333539203A202824
:103E20004E554C4C20213D2068616E646C65292004
:103E3000262620284E554C4C20213D20636F6E666F
:103E4000696729002E2E2F647269766572732F665A
:103E5000736C5F646D612E633A333836203A204EBE
:103E6000554C4C20213D2068616E646C6500FFFF5D
:103E70002E2E2F647269766572732F66736C5F677E
:103E800070696F2E633A3630203A20706F7274205A
:103E90003C2041525241595F53495A4528735F674C
:103EA00070696F436C6F636B4E616D652900FFFF36
:103EB0002E2E2F647269766572732F66736C5F7233
:103EC000657365742E633A3632203A206269745005
:103ED0006F73203C20333275000000002E2E2F64BB
:103EE0007269766572732F66736C5F726573657441
:103EF0002E633A3734203A20626974506F73203C45
:103F00002033327500FFFFFF2E2E2F647269766515
:103F100072732F66736C5F7370692E683A33393829
:103F2000203A204E554C4C20213D206261736500A3
:103F30002E2E2F647269766572732F66736C5F73B1
:103F400070692E683A343330203A204E554C4C205C
:103F5000213D2062617365002E2E2F6472697665A3
:103F600072732F66736C5F7370692E683A343434E1
:103F7000203A204E554C4C20213D20626173650053
:103F80002E2E2F647269766572732F66736C5F7361
:103F900070692E633A313631203A204E554C4C2010
:103FA000213D2062617365002E2E2F647269766553
:103FB00072732F66736C5F7370692E633A31373397
:103FC000203A2066616C7365000000002E2E2F647D
:103FD0007269766572732F66736C5F7370692E6396
:103FE0003A313836203A204E554C4C20213D206342
:103FF0006F6E6669670000002E2E2F647269766509
:1040000072732F66736C5F7370692E633A31393443
:10401000203A204E554C4C20213D20636F6E66693E
:10402000670000002E2E2F647269766572732F660A
:10403000736C5F7370692E633A323136203A2021F7
:1040400028284E554C4C203D3D2062617365292047
:104050007C7C20284E554C4C203D3D20636F6E6685
:10406000696729207C7C202830203D3D20737263C5
:10407000436C6F636B5F487A292900002E2E2F64F2
:104080007269766572732F66736C5F7370692E63E5
:104090003A323536203A204E554C4C20213D206393
:1040A0006F6E6669670000002E2E2F647269766558
:1040B00072732F66736C5F7370692E633A32373197
:1040C000203A202128284E554C4C203D3D2062614D
:1040D000736529207C7C20284E554C4C203D3D208A
:1040E000636F6E6669672929000000002E2E2F6419
:1040F0007269766572732F66736C5F7370692E6375
:104100003A333030203A204E554C4C20213D20622D
:10411000617365002E2E2F647269766572732F6647
:10412000736C5F7370692E633A333133203A202108
:1041300028284E554C4C203D3D2062617365292056
:104140007C7C202830203D3D206261756472617462
:10415000655F42707329207C7C202830203D3D2003
:10416000737263436C6F636B5F487A2929000000A8
:104170002E2E2F647269766572732F66736C5F736F
:1041800070692E633A333330203A204E554C4C2020
:10419000213D2062617365002E2E2F647269766561
:1041A00072732F66736C5F7370692E633A333436A3
:1041B000203A20284E554C4C20213D2062617365E9
:1041C00029207C7C20284E554C4C20213D206861C4
:1041D0006E646C65290000002E2E2F64726976656E
:1041E00072732F66736C5F7370692E633A3337395D
:1041F000203A202128284E554C4C203D3D2062611C
:10420000736529207C7C20284E554C4C203D3D2058
:104210007866657229207C7C2028284E554C4C20DD
:104220003D3D20786665722D3E7478446174612945
:1042300020262620284E554C4C203D3D2078666592
:10424000722D3E72784461746129292900000000B2
:104250002E2E2F647269766572732F66736C5F738E
:1042600070692E633A343637203A202128284E557B
:104270004C4C203D3D206261736529207C7C2028C8
:104280004E554C4C203D3D2068616E646C65292084
:104290007C7C20284E554C4C203D3D207866657234
:1042A00029207C7C2028284E554C4C203D3D2078F0
:1042B0006665722D3E74784461746129202626203B
:1042C000284E554C4C203D3D20786665722D3E723F
:1042D0007844617461292929000000002E2E2F6482
:1042E0007269766572732F66736C5F7370692E6383
:1042F0003A353530203A204E554C4C20213D20682F
:10430000616E646C650000002E2E2F647269766504
:1043100072732F66736C5F7370692E633A35373032
:10432000203A204E554C4C20213D2068616E646C33
:10433000650000002E2E2F647269766572732F66F9
:10434000736C5F7370692E633A353831203A2028D8
:104350004E554C4C20213D20626173652920262654
:1043600020284E554C4C20213D2068616E646C65C0
:10437000290000002E2E2F647269766572732F66F5
:10438000736C5F7370692E633A363138203A202897
:104390004E554C4C20213D20626173652920262614
:1043A00020284E554C4C20213D2068616E646C6580
:1043B000290000002E2E2F647269766572732F66B5
:1043C000736C5F7370692E633A363730203A20730E
:1043D0005F73706948616E646C655B305D000000FE
:1043E0002E2E2F647269766572732F66736C5F73FD
:1043F00070692E633A363738203A20735F737069DC
:1044000048616E646C655B315D00FFFF2E2E2F648A
:104410007269766572732F66736C5F73776D2E6346
:104420003A3537203A204E554C4C20213D206261D0
:10443000736500002E2E2F647269766572732F6685
:10444000736C5F73776D2E633A3538203A2066754A
:104450006E63203C206B53574D5F4D4F5641424C8D
:10446000455F4E554D5F46554E4353002E2E2F64EB
:104470007269766572732F66736C5F73776D2E63E6
:104480003A3937203A204E554C4C20213D2062616C
:10449000736500002E2E2F647269766572732F6625
:1044A000736C5F73776D2E633A3938203A20286633
:1044B000756E63203E203029207C7C2066756E63FB
:1044C000203C206B53574D5F464958454450494E58
:1044D0005F4E554D5F46554E435300FF004006402A
:1044E0000080064000C006400E0F10FF030405FFC9
:1044F0002E2E2F647269766572732F66736C5F75EA
:10450000736172742E633A3931203A2066616C739C
:10451000650000002E2E2F647269766572732F6617
:10452000736C5F75736172742E633A313030203A68
:10453000204E554C4C20213D2068616E646C650016
:104540002E2E2F647269766572732F66736C5F7599
:10455000736172742E633A313138203A204E554CD3
:104560004C20213D2068616E646C65002E2E2F6406
:104570007269766572732F66736C5F75736172749E
:104580002E633A313334203A204E554C4C20213D95
:1045900020626173650000002E2E2F6472697665BB
:1045A00072732F66736C5F75736172742E633A3128
:1045B0003335203A204E554C4C20213D2068616E09
:1045C000646C65002E2E2F647269766572732F6697
:1045D000736C5F75736172742E633A313336203AAF
:1045E000204E554C4C20213D2072696E6742756605
:1045F000666572002E2E2F647269766572732F665F
:10460000736C5F75736172742E633A313531203A81
:10461000204E554C4C20213D206261736500000006
:104620002E2E2F647269766572732F66736C5F75B8
:10463000736172742E633A313532203A204E554CF4
:104640004C20213D2068616E646C65002E2E2F6425
:104650007269766572732F66736C5F7573617274BD
:104660002E633A313730203A202128284E554C4CC1
:10467000203D3D206261736529207C7C20284E55B9
:104680004C4C203D3D20636F6E66696729207C7C21
:10469000202830203D3D20737263436C6F636B5F55
:1046A000487A2929000000002E2E2F647269766551
:1046B00072732F66736C5F75736172742E633A3216
:1046C0003034203A204E554C4C20213D20626173FD
:1046D000650000002E2E2F647269766572732F6656
:1046E000736C5F75736172742E633A323138203A9D
:1046F000204E554C4C20213D20636F6E666967004B
:104700002E2E2F647269766572732F66736C5F75D7
:10471000736172742E633A323334203A2021282890
:104720004E554C4C203D3D206261736529207C7CB8
:10473000202830203D3D2062617564726174655FA0
:1047400042707329207C7C202830203D3D207372EC
:1047500063436C6F636B5F487A2929002E2E2F64A8
:104760007269766572732F66736C5F7573617274AC
:104770002E633A323939203A202128284E554C4CA4
:10478000203D3D206261736529207C7C20284E55A8
:104790004C4C203D3D2064617461292900000000DB
:1047A0002E2E2F647269766572732F66736C5F7537
:1047B000736172742E633A333230203A20212828F4
:1047C0004E554C4C203D3D206261736529207C7C18
:1047D00020284E554C4C203D3D20646174612929B0
:1047E000000000002E2E2F647269766572732F66AA
:1047F000736C5F75736172742E633A333637203A87
:10480000202128284E554C4C203D3D206261736587
:1048100029207C7C20284E554C4C203D3D20686151
:104820006E646C65292900002E2E2F6472697665EE
:1048300072732F66736C5F75736172742E633A3393
:104840003931203A202128284E554C4C203D3D201E
:104850006261736529207C7C20284E554C4C203D9C
:104860003D2068616E646C6529207C7C20284E5553
:104870004C4C203D3D2078666572292900000000DF
:104880002E2E2F647269766572732F66736C5F7556
:10489000736172742E633A333933203A2021282809
:1048A00030203D3D20786665722D3E646174615311
:1048B000697A6529207C7C20284E554C4C203D3D52
:1048C00020786665722D3E646174612929000000BC
:1048D0002E2E2F647269766572732F66736C5F7506
:1048E000736172742E633A343136203A204E554C3F
:1048F0004C20213D2068616E646C65002E2E2F6473
:104900007269766572732F66736C5F75736172740A
:104910002E633A343237203A204E554C4C20213DFC
:104920002068616E646C65002E2E2F647269766556
:1049300072732F66736C5F75736172742E633A3491
:104940003238203A204E554C4C20213D20636F7563
:104950006E7400002E2E2F647269766572732F6656
:10496000736C5F75736172742E633A343534203A18
:10497000202128284E554C4C203D3D206261736516
:1049800029207C7C20284E554C4C203D3D206861E0
:104990006E646C6529207C7C20284E554C4C203D53
:1049A0003D20786665722929000000002E2E2F64B4
:1049B0007269766572732F66736C5F75736172745A
:1049C0002E633A343536203A2021282830203D3DC8
:1049D00020786665722D3E6461746153697A652939
:1049E000207C7C20284E554C4C203D3D207866652F
:1049F000722D3E6461746129290000002E2E2F64FF
:104A00007269766572732F66736C5F757361727409
:104A10002E633A353431203A204E554C4C20213DFE
:104A20002068616E646C65002E2E2F647269766555
:104A300072732F66736C5F75736172742E633A358F
:104A40003535203A204E554C4C20213D2068616E72
:104A5000646C65002E2E2F647269766572732F6602
:104A6000736C5F75736172742E633A353536203A14
:104A7000204E554C4C20213D20636F756E74000014
:104A80002E2E2F647269766572732F66736C5F7554
:104A9000736172742E633A353731203A20284E55AF
:104AA0004C4C20213D206261736529202626202858
:104AB0004E554C4C20213D2068616E646C65290088
:104AC0002E2E2F626F6172642F626F6172642E638B
:104AD0003A3538203A206B5374617475735F53759F
:104AE0006363657373203D3D20726573756C74005C
:104AF0002E2E2F647269766572732F66736C5F63F6
:104B00006C6F636B2E683A333837203A2076616CCD
:104B1000756520213D20305500FFFFFF0101FFFF9B
:104B2000030000002A2A2A206173736572742066CC
:104B300061696C6564203A20002A2A2A205F437349
:104B400079735F616C6C6F63206661696C65640A80
:084B50000072007700FFFFFF77
:104B5800104100064D514973647003C2003C0016B1
:104B68006D6F73717375627C31313331312D6879B2
:104B780064726F67656E00086A696E676A696E6756
:104B88000011656973656E393939396A696E676A02
:104B9800696E671A82090001000474657374001A4B
:104BA80082140001000F0000000000000000000057
:0C4BB8000000000000001AFF001BB70006
:04000003000000D524
:00000001FF
